:100000000C9435000C945D000C945D000C945D0024
:100010000C945D000C945D000C945D000C945D00EC
:100020000C945D000C945D000C945D000C945D00DC
:100030000C945D000C945D000C945D000C945D00CC
:100040000C94A3020C945D000C9413030C94ED0229
:100050000C9445030C945D000C945D000C945D00C1
:100060000C945D000C945D00860411241FBECFEF3C
:10007000D8E0DEBFCDBF11E0A0E0B1E0E4E1FAE0FE
:1000800002C005900D92A232B107D9F721E0A2E299
:10009000B1E001C01D92AB3CB207E1F710E0C5E34F
:1000A000D0E004C02197FE010E94FD04C433D107B3
:1000B000C9F70E9450030C9408050C9400003FB748
:1000C000F89480912A0190912B01A0912C01B0917C
:1000D0002D0126B5A89B05C02F3F19F00196A11D43
:1000E000B11D3FBFBA2FA92F982F8827820F911DCE
:1000F000A11DB11DBC01CD0142E0660F771F881F15
:10010000991F4A95D1F708958F929F92AF92BF920F
:10011000CF92DF92EF92FF926B017C010E945F0011
:100120004B015C01C114D104E104F104F1F00E941F
:100130005F00DC01CB0188199909AA09BB09883E37
:100140009340A105B10570F321E0C21AD108E1087E
:10015000F10888EE880E83E0981EA11CB11CC11422
:10016000D104E104F10419F7DDCFFF90EF90DF90A7
:10017000CF90BF90AF909F908F900895CF92DF92D5
:10018000EF92FF920F931F93CF93DF936C017A014D
:100190008B01C0E0D0E0CE15DF0581F0D8016D9174
:1001A0008D01D601ED91FC910190F081E02DC60109
:1001B0000995892B11F02196EECF7E01C701DF91C1
:1001C000CF911F910F91FF90EF90DF90CF90089506
:1001D000AB01BC018EE291E00C94BE00089580E07A
:1001E00090E00895FC01538D448D252F30E0842F3D
:1001F00090E0821B930B541710F0CF96089501974F
:100200000895FC01918D828D981761F0828DDF0138
:10021000A80FB11D5D968C91928D9F5F9F73928FF9
:1002200090E008958FEF9FEF0895FC01918D828DEE
:10023000981731F0828DE80FF11D858D90E00895BB
:100240008FEF9FEF0895FC01918D228D892F90E013
:10025000805C9F4F821B91098F73992708958EE2CE
:1002600091E00E94230121E0892B09F420E0822FF4
:100270000895FC01848DDF01A80FB11DA35ABF4F63
:100280002C91848D90E001968F739927848FA68995
:10029000B7892C93A089B1898C91837080648C93E9
:1002A000938D848D981306C00288F389E02D808198
:1002B0008F7D80830895EF92FF920F931F93CF93CA
:1002C000DF93EC0181E0888F9B8D8C8D981305C0A6
:1002D000E889F989808185FD26C0F62E0B8D10E016
:1002E0000F5F1F4F0F731127E02E8C8DE8120CC08B
:1002F0000FB607FCFACFE889F989808185FFF5CF31
:10030000CE010E943901F1CF8B8DFE01E80FF11D66
:10031000E35AFF4FF0829FB7F8940B8FEA89FB896D
:10032000808180620AC09FB7F894EE89FF8960835C
:10033000E889F98980818370806480839FBF81E030
:1003400090E0DF91CF911F910F91FF90EF90089572
:100350006AE08EE291E00C945B01CF93DF93EC01B5
:10036000888D8823C9F0EA89FB89808185FD05C0D5
:10037000A889B9898C9186FD0FC00FB607FCF5CF0F
:10038000808185FFF2CFA889B9898C9185FFEDCF57
:10039000CE010E943901E7CFDF91CF91089580E02F
:1003A00090E0892B29F00E942F0181110C9400000C
:1003B0000895FC01680F791F8FEF90E0E617F707AB
:1003C00091F02191822728E030E0AC0156954795C5
:1003D00080FF04C0CA01A8EB8A2701C0CA012150CE
:1003E000310999F7EBCF08955A9A61E070E080E007
:1003F00090E00C948400CF92DF92EF92FF920F93E3
:100400001F93CF93DF93CDB7DEB7A1970FB6F894C4
:10041000DEBF0FBECDBF9C0140E050E019A28E01AF
:100420000F5D1F4F8AE0C82ED12CE12CF12CCA01A0
:10043000B901A70196010E94C704605DF8016293AB
:100440008F01211531054105510589F7309771F06C
:1004500001900020E9F73197AF01401B510BB80123
:100460008EE291E00E94BE008C0102C000E010E02C
:1004700042E050E063E171E08EE291E00E94BE0054
:10048000800F911FA1960FB6F894DEBF0FBECDBFAF
:10049000DF91CF911F910F91FF90EF90DF90CF9060
:1004A00008959F92AF92BF92CF92DF92EF92FF9208
:1004B0000F931F93CF93DF937C01942EEB01219632
:1004C000CE0165E070E00E94B3048B01892B11F42A
:1004D0000150110962E08EE291E00E945B01670128
:1004E000E12CF12C2197CC0DDD1D65E070E0C601FB
:1004F0000E94D9015C010E151F0519F48881892518
:10050000888365E070E0C6010E94E8000E94A801AF
:10051000C5010E94FB018FEFE81AF80A85E0C80EBA
:10052000D11C82E0E816F10401F7DF91CF911F9111
:100530000F91FF90EF90DF90CF90BF90AF909F9082
:1005400008950E9403051F920F920FB60F92112477
:100550002F933F938F939F93AF93BF9380912601E7
:1005600090912701A0912801B09129013091250196
:1005700023E0230F2D3720F40196A11DB11D05C0E6
:1005800026E8230F0296A11DB11D2093250180931B
:10059000260190932701A0932801B093290180910F
:1005A0002A0190912B01A0912C01B0912D0101966F
:1005B000A11DB11D80932A0190932B01A0932C01C2
:1005C000B0932D01BF91AF919F918F913F912F914A
:1005D0000F900FBE0F901F9018951F920F920FB69D
:1005E0000F9211242F933F934F935F936F937F93B9
:1005F0008F939F93AF93BF93EF93FF938EE291E01E
:100600000E943901FF91EF91BF91AF919F918F911E
:100610007F916F915F914F913F912F910F900FBEFE
:100620000F901F9018951F920F920FB60F921124E2
:100630002F938F939F93EF93FF93E0913E01F0915F
:100640003F018081E0914401F091450182FD12C09B
:100650009081809147018F5F8F73209148018217AD
:1006600051F0E0914701F0E0E25DFE4F958F8093FD
:10067000470101C08081FF91EF919F918F912F9150
:100680000F900FBE0F901F9018951F920F920FB6EC
:100690000F9211245A980F900FBE0F901F9018952B
:1006A000CF93DF93CDB7DEB72B970FB6F894DEBFAD
:1006B0000FBECDBF789484B5826084BD84B581605F
:1006C00084BD85B5826085BD85B5816085BD80911D
:1006D0006E00816080936E00109281008091810095
:1006E000826080938100809181008160809381008D
:1006F000809180008160809380008091B10084604F
:100700008093B1008091B00081608093B0008091AF
:100710007A00846080937A0080917A00826080936E
:100720007A0080917A00816080937A0080917A00CB
:10073000806880937A001092C10068EE73E080E0D8
:1007400090E00E9484008FEF84B915B887E08AB9E1
:1007500088EF8BB9E0913E01F0913F0112E01083E8
:10076000E0913A01F0913B011082E0913C01F0915F
:100770003D018FEC808310924601E0914201F0919F
:10078000430186E08083E0914001F0914101808146
:1007900080618083E0914001F09141018081886017
:1007A0008083E0914001F0914101808180688083E5
:1007B000E0914001F091410180818F7D80838091A3
:1007C000C10084648093C1008091C00081608093E7
:1007D000C00061E070E080E090E00E94840010932F
:1007E000240115B911E089B18EE291E00E94230144
:1007F000892B09F488C08EE291E00E94010190915A
:100800000001992371F09091240189137CC010920A
:100810000001109323018091C0008E7F8093C0005F
:1008200072C090912301992309F466C0809322013C
:1008300010922301813A09F466C0813B99F5109327
:1008400000010E94F4018BE0E6E1F1E0DE01119687
:1008500001900D928A95E1F762E08EE291E00E94AC
:100860005B0165E070E0CE0101960E94E8000E9405
:10087000A80165E070E0CE0101960E94D9010E94B6
:10088000FB0165E070E0CE0106960E94E8000E9440
:10089000A80165E070E0CE0106960E94D9010E9491
:1008A000FB0131C0813C89F4109300010E94F401E6
:1008B0008BE0E6E1F1E0DE01119601900D928A9560
:1008C000E1F741E069E070E012C0813DE1F410938E
:1008D00000010E94F4018BE0E6E1F1E0DE011196F7
:1008E00001900D928A95E1F743E062E070E0CE015D
:1008F00001960E94510207C090912201913A19F489
:100900001093000185B90E94CF016DCFEEE2F1E0B6
:100910001382128288EE93E0A0E0B0E08483958396
:10092000A683B78385E091E09183808385EC90E096
:100930009587848784EC90E09787868780EC90E0A9
:10094000918B808B81EC90E0938B828B82EC90E09A
:10095000958B848B86EC90E0978B868B118E128E14
:10096000138E148E089597FB072E16F4009407D06B
:1009700077FD09D00E94E90407FC05D03EF490956C
:1009800081959F4F0895709561957F4F0895A1E2DD
:100990001A2EAA1BBB1BFD010DC0AA1FBB1FEE1FF9
:1009A000FF1FA217B307E407F50720F0A21BB30B44
:1009B000E40BF50B661F771F881F991F1A9469F7C0
:1009C00060957095809590959B01AC01BD01CF011C
:1009D0000895AA1BBB1B51E107C0AA1FBB1FA61786
:1009E000B70710F0A61BB70B881F991F5A95A9F7D8
:1009F00080959095BC01CD010895EE0FFF1F0590E5
:100A0000F491E02D099481E090E0F8940C940805AD
:040A1000F894FFCF88
:100A140001000000005B01BE00F200AD01230101F2
:100A24000115010D0A0033302E31322E32303030B0
:020A34000000C0
:107E0000112484B714BE81FFF0D085E080938100F7
:107E100082E08093C00088E18093C10086E0809377
:107E2000C20080E18093C4008EE0C9D0259A86E02C
:107E300020E33CEF91E0309385002093840096BBD3
:107E4000B09BFECF1D9AA8958150A9F7CC24DD24C4
:107E500088248394B5E0AB2EA1E19A2EF3E0BF2EE7
:107E6000A2D0813461F49FD0082FAFD0023811F036
:107E7000013811F484E001C083E08DD089C08234E0
:107E800011F484E103C0853419F485E0A6D080C0E4
:107E9000853579F488D0E82EFF2485D0082F10E0AE
:107EA000102F00270E291F29000F111F8ED06801E7
:107EB0006FC0863521F484E090D080E0DECF843638
:107EC00009F040C070D06FD0082F6DD080E0C81688
:107ED00080E7D80618F4F601B7BEE895C0E0D1E017
:107EE00062D089930C17E1F7F0E0CF16F0E7DF06D8
:107EF00018F0F601B7BEE89568D007B600FCFDCFD4
:107F0000A601A0E0B1E02C9130E011968C91119780
:107F100090E0982F8827822B932B1296FA010C0160
:107F200087BEE89511244E5F5F4FF1E0A038BF0790
:107F300051F7F601A7BEE89507B600FCFDCF97BE46
:107F4000E89526C08437B1F42ED02DD0F82E2BD052
:107F50003CD0F601EF2C8F010F5F1F4F84911BD097
:107F6000EA94F801C1F70894C11CD11CFA94CF0C13
:107F7000D11C0EC0853739F428D08EE10CD085E9AC
:107F80000AD08FE07ACF813511F488E018D01DD067
:107F900080E101D065CF982F8091C00085FFFCCF94
:107FA0009093C60008958091C00087FFFCCF809118
:107FB000C00084FD01C0A8958091C6000895E0E648
:107FC000F0E098E1908380830895EDDF803219F02E
:107FD00088E0F5DFFFCF84E1DECF1F93182FE3DFCA
:107FE0001150E9F7F2DF1F91089580E0E8DFEE27F6
:047FF000FF270994CA
:027FFE00040479
:0400000300007E007B
:00000001FF
