:1000000067C1000094C1000092C1000090C10000CF
:100010008EC100008CC100008AC1000088C10000B0
:1000200086C1000084C1000082C1000080C10000C0
:100030007EC100007CC100007AC1000078C10000D0
:1000400076C1000074C1000072C1000070C10000E0
:100050006EC100006CC100006AC100002AC400002B
:1000600066C1000064C1000062C1000060C1000000
:100070005EC100005CC100005AC1000058C1000010
:1000800062C4000054C1000052C1000050C1000011
:100090004EC100004CC100004AC1000048C1000030
:1000A00046C1000044C1000042C1000040C1000040
:1000B0003EC100003CC100003AC1000038C1000050
:1000C00036C1000034C1000032C1000030C1000060
:1000D0002EC100002CC100002AC1000028C1000070
:1000E00026C10000E501E801D701DB01DF011F02A5
:1000F000EC01F001F601FA01FE01040208020C0213
:100100001F02120216021A026364696E6F70737521
:1001100078585B003030003031003032003033002E
:1001200030340030350030360030370030380030A1
:100130003900313000313100313200313300313497
:1001400000313500313600313700313800313900A7
:100150003230003231003232003233003234003279
:100160003500323600323700323800323900333051
:100170000033310033320033330033340033350081
:10018000333600333700333800333900343000342D
:100190003100343200343300343400343500343626
:1001A0000034370034380034390035300035310040
:1001B00035320035330035340035350035360035FD
:1001C000370035380035390000000A0B02090C0DE4
:1001D0000E080703040100000000000000000000FA
:1001E000000000000000000000000000000000000F
:1001F00000000000121110000000000000000000CC
:1002000000000000000000000000000000000000EE
:100210002200250028002B002E00310034000201AE
:100220000000050108010B01000021002400270047
:100230002A002D00300033000101000004010701F5
:100240000A0105050505070508080808020202025B
:100250000A0A080804040404010101010101010162
:100260000303030303030303040707070C0C0C0C2D
:100270000C0C0C0C02020202060606060606060616
:100280000B0B0B0B0B0B0B0B0102102020080810A3
:1002900020401020408002010201080402010102F6
:1002A00004081020408080402010080402018004CF
:1002B000020180402010080402010804020101022A
:1002C0000408102040800102040810204080FF072D
:1002D00011241FBECFEFD1E2DEBFCDBF00E00CBFC7
:1002E00012E0A0E0B2E0E2E0F7E100E00BBF02C004
:1002F00007900D92A231B107D9F722E0A2E1B2E056
:1003000001C01D92A335B207E1F711E0C8E6D1E0C4
:1003100000E005C021970109802FFE018DD6C73668
:10032000D10780E00807B1F79ED30C947F0B68CE0D
:1003300090E0FC01E857FD4F2491FC01EE5BFD4F7E
:100340008491882399F090E0880F991FFC01E85D63
:10035000FD4FA591B491FC01E25FFD4F8591949111
:100360008FB7F894EC91E22BEC938FBF0895362F62
:1003700090E0FC01E853FE4F4491FC01E857FD4F2B
:100380002491FC01EE5BFD4F9491992309F46BC01D
:10039000442309F454C050E0FA013197E231F105E9
:1003A00008F04DC08827EE58FF4F8F4F45C680910B
:1003B00080008F7707C0809180008F7D03C080917F
:1003C0008000877F809380003AC084B58F7702C019
:1003D00084B58F7D84BD33C08091B0008F7703C01A
:1003E0008091B0008F7D8093B00029C080919000F3
:1003F0008F7707C0809190008F7D03C0809190001F
:10040000877F809390001BC08091A0008F7707C0EA
:100410008091A0008F7D03C08091A000877F809392
:10042000A0000DC0809120018F7707C0809120012E
:100430008F7D03C080912001877F80932001E92F69
:10044000F0E0EE0FFF1FE25FFD4FA591B4919FB763
:10045000F894311104C08C912095282302C0EC91AE
:100460002E2B2C939FBF08953FB7F89480913702AD
:1004700090913802A0913902B0913A0226B5A89B1A
:1004800005C02F3F19F00196A11DB11D3FBFBA2F26
:10049000A92F982F8827820F911DA11DB11DBC0186
:1004A000CD0142E0660F771F881F991F4A95D1F74B
:1004B00008958F929F92AF92BF92CF92DF92EF9268
:1004C000FF926B017C01D0DF4B015C01C114D104B0
:1004D000E104F104E9F0C8DFDC01CB0188199909D6
:1004E000AA09BB09883E9340A105B10578F321E034
:1004F000C21AD108E108F10888EE880E83E0981E40
:10050000A11CB11CC114D104E104F10421F7DECF18
:10051000FF90EF90DF90CF90BF90AF909F908F9023
:100520000895CF92DF92EF92FF920F931F93CF9394
:10053000DF936C017A018B01C0E0D0E0CE15DF05BE
:1005400081F0D8016D918D01D601ED91FC91019062
:10055000F081E02DC6011995892B11F02196EECF7F
:100560007E01C701DF91CF911F910F91FF90EF9016
:10057000DF90CF900895CF93DF93EC0160E08E8100
:10058000F6DE61E08E81F3DE60E08E81F0DE8BE8E6
:1005900091E00197F1F7DF91CF910895CF92DF922B
:1005A000EF92FF920F931F93CF93DF936C017C0127
:1005B00087E0E80EF11CC0E0D0E0062F10E0B801A3
:1005C0000C2E02C0759567950A94E2F76170F701E9
:1005D00081917F01CCDE2196C430D10581F7C6011F
:1005E000DF91CF911F910F91FF90EF90DF90CF900F
:1005F000C2CFCF92DF92EF92FF920F931F93CF93D0
:10060000DF93EC01F62E642F8C81B1DE8D818F3F5C
:1006100011F060E0ACDE8F850F2D10E084FF23C069
:100620006E0187E0C80ED11CE12CF12CB8010E2C14
:1006300002C0759567950A94E2F76170F6018191A1
:100640006F0195DEFFEFEF1AFF0A88E0E816F1046C
:1006500069F7CE01DF91CF911F910F91FF90EF903D
:10066000DF90CF9088CFB80184E0759567958A9523
:10067000E1F7CE0193DF6F2DCE01DF91CF911F9176
:100680000F91FF90EF90DF90CF9088CF40E0682FE0
:100690008BE392E0AECFCF93DF93823028F090913E
:1006A0004A02986090934A0280934E0210924F0241
:1006B00080E48093500280E18093510280E5809332
:1006C000520280913F0234DE809140028F3F09F058
:1006D0002FDE809141022CDECBE3D2E09E012B5332
:1006E000324080914A0284FD03C084E090E002C061
:1006F00088E090E02196281739071CF48E8118DED7
:10070000EDCF8BE39DE00197F1F760E080913F0230
:100710002EDE60E0809141022ADE809140028F3F10
:1007200011F060E024DE80914A0284FD1CC063E089
:100730008BE392E033DFCBE4D6E4CE010197F1F70F
:1007400063E08BE392E02ADF2197F1F763E08BE32C
:1007500092E024DF83E592E00197F1F762E08BE31A
:1007600092E01CDF12C0806291DF8BE496E4019777
:10077000F1F780914A02806289DF83E592E0019778
:10078000F1F780914A02806281DF80914A028062A3
:100790007DDF84E080934B028CE078DF81E076DFC0
:1007A0008BE39FE10197F1F782E080934C0286E0B2
:1007B000DF91CF916BCF643008F063E090914E02EF
:1007C000691710F06FEF690FE62FF0E0E55CFD4F61
:1007D0009489890F80685ACF41E00BDF81E090E077
:1007E0000895089580E090E0089581E04FDF8BE365
:1007F0009FE10197F1F71092300283E080930202AB
:1008000010922B02109213021092120261E085E105
:10081000AEDD6CE271E080E090E04BDE60E085E10F
:10082000A6CDEF92FF920F931F93CF93DF938C018E
:100830007B01C0E0D0E0CE15DF0554F4F801EC0FE9
:10084000FD1F649141E08BE392E0D3DE2196F3CF6C
:10085000DF91CF911F910F91FF90EF900895682F36
:1008600083E0A9DF61E070E088EC91E0DADF61E02D
:1008700070E088EC91E0D5DF6AE38BE392E0ACDFD7
:1008800061E070E088EC91E0CCDF61E070E088EC42
:1008900091E0C7DF6AE38BE392E09EDF61E070E006
:1008A00088EC91E0BEDF61E070E088EC91E0B9CFC8
:1008B000CBD31F920F920FB60F9211242F933F9319
:1008C0008F939F93AF93BF938091330290913402A3
:1008D000A0913502B09136023091320223E0230F0D
:1008E0002D3720F40196A11DB11D05C026E8230F68
:1008F0000296A11DB11D2093320280933302909382
:100900003402A0933502B093360280913702909161
:100910003802A0913902B0913A020196A11DB11D91
:100920008093370290933802A0933902B0933A0231
:10093000BF91AF919F918F913F912F910F900FBEDB
:100940000F901F9018951F920F920FB60F921124BF
:100950000BB60F922F933F934F935F936F937F93B9
:100960008F939F93AF93BF93EF93FF938091180260
:10097000882329F180912002882321F081508093DF
:1009800020021DC08CE380932002809121028823E5
:1009900021F081508093210212C08091220288238D
:1009A00021F08150809322020AC010921802109206
:1009B000310281E090E090931302809312028091C3
:1009C0001702882329F180911902882321F0815090
:1009D000809319021DC08CE38093190280911A0242
:1009E000882321F0815080931A0212C080911B024B
:1009F000882321F0815080931B020AC010921702B5
:100A000010922F0281E090E09093130280931202E3
:100A10008091120290911302009791F001969093A9
:100A200013028093120280FD02C061E007C04E975E
:100A300021F4109213021092120260E085E197DC1B
:100A4000FF91EF91BF91AF919F918F917F916F91A6
:100A50005F914F913F912F910F900BBE0F900FBE62
:100A60000F901F901895789484B5826084BD84B5EA
:100A7000816084BD85B5826085BD85B5816085BD99
:100A800080916E00816080936E0010928100809151
:100A900081008260809381008091810081608093D9
:100AA0008100809180008160809380008091B100FE
:100AB00084608093B1008091B00081608093B00029
:100AC000809191008260809391008091910081607B
:100AD000809391008091900081608093900080913C
:100AE000A10082608093A1008091A1008160809329
:100AF000A1008091A00081608093A00080912101DD
:100B00008260809321018091210181608093210185
:100B10008091200181608093200180917A0084601F
:100B200080937A0080917A00826080937A0080912D
:100B30007A00816080937A0080917A008068809347
:100B40007A001092C100F894109290008DE080938A
:100B5000910082E08093710088E09DE3909399007A
:100B6000809398008FE080930A0180EF80930B01BF
:100B700082E091DD789485E1DBDB60E085E1F7DB05
:100B8000109216029EEF292EC4E1D2E02CE1822EB3
:100B900022E0922E0FE012E03EE1E32E32E0F32E4F
:100BA00043E2C42E42E0D42E50E0A52E50E0B52EF4
:100BB000A5E46A2EB3E44B2E82E4382E80913102F4
:100BC000882399F160E083E0F6DD8091220290E0D5
:100BD0009C01220F331F820F931F62E070E08C5E36
:100BE0009E4F1FDE6AE38BE392E0F6DD80912102E7
:100BF00090E09C01220F331F820F931F62E070E090
:100C00008C5E9E4F0EDE6AE38BE392E0E5DD809121
:100C1000200290E09C01220F331F820F931F62E09D
:100C200070E08C5E9E4FFDDD06C080913002813009
:100C300011F080E014DE80912F02882399F161E0A9
:100C400083E0B9DD80911B0290E09C01220F331FED
:100C5000820F931F62E070E08C5E9E4FE2DD6AE3DC
:100C60008BE392E0B9DD80911A0290E09C01220FA3
:100C7000331F820F931F62E070E08C5E9E4FD1DDC8
:100C80006AE38BE392E0A8DD8091190290E09C0179
:100C9000220F331F820F931F62E070E08C5E9E4F25
:100CA000C0DD06C080913002823011F081E0D7DDD6
:100CB0007090010221E0809109017212A3C0803F6F
:100CC00009F4AAC062E370E080E090E0F2DB1092E9
:100CD00001027092000220920B0190910B01809111
:100CE000090198131DC08DEF80930B0190910B01AA
:100CF00080910901981314C08BEF80930B019091A0
:100D00000B018091090198130BC087EF80930B01B1
:100D100090910B0180910901981302C0109200027A
:100D200080910002813009F069C0809109018E3EF6
:100D300011F481E35EC0809109018E3D11F482E3DC
:100D400058C0809109018E3B11F483E352C0809119
:100D500009018D3E11F484E34CC0809109018D3D61
:100D600011F485E346C0809109018D3B11F486E3BF
:100D700040C0809109018B3E11F487E33AC0809115
:100D800009018B3D11F488E334C0809109018B3B4C
:100D900011F489E32EC080910901873D11F480E3AD
:100DA00028C0809109018E3711F481E422C080911E
:100DB00009018D3719F430922D021DC0809109016F
:100DC0008B3719F440922D0216C0809109018737A4
:100DD00021F434E430932D020EC080910901873B49
:100DE00019F460922D0207C080910901873E19F421
:100DF00086E480932D0281E080932E0220EF2093E1
:100E00000B010AC0803F41F468EC70E080E090E0A4
:100E100050DB81E08093010280912E02882309F447
:100E2000D0C061E085E1A3DA10922E0270902D020D
:100E300070922C0264E670E080E090E03ADB60E0C3
:100E400085E195DA36E4731202C0CFDCBAC0609156
:100E500030026150623008F078C0E0912B0281E0EE
:100E60008E0F80932B02F0E0EB5DFD4F708280913E
:100E70000202853011F0883019F48F5F80930202EE
:100E80008091020255245394580E5092020293DC32
:100E9000672D8BE392E0A0DC8AE0851510F4609268
:100EA0002C0280912C02853409F08BC080912502A0
:100EB0008093140280912602809315029F928F9254
:100EC0001F930F93DF93CF93C3D08091270280931A
:100ED00014028091280280931502FF92EF921F93D3
:100EE0000F93DF93CF93B4D08091290280931402A3
:100EF00080912A0280931502DF92CF921F930F9365
:100F0000DF93CF93A5D080911C0290911D022DB745
:100F10003EB72E5E3F4F0FB6F8943EBF0FBE2DBFBB
:100F2000893191050CF091CF20911E0230911F0262
:100F30002D3331050CF089CF4091230250912402CA
:100F40004D3351050CF081CF43C031E4731205C01D
:100F500081E08093300280E007C082E4781206C00E
:100F600082E08093300281E07ADC2BC023E47212AD
:100F700013C080911802882359F010923102109208
:100F8000200210922102109222021092180219C01F
:100F900081E08093180215C034E4731212C080916E
:100FA0001702882359F010922F0210921902109202
:100FB0001A0210921B021092170203C081E0809364
:100FC0001702A114B10409F4F9CD0E940000F0CD7C
:100FD00060913002613049F4409320022093210255
:100FE000809322026093310230CF40931902209304
:100FF0001A0280931B0281E080932F0226CFEBE33D
:10100000F2E01382128287E092E0918380838EE384
:1010100084838FE3858380E4868381E4878382E40D
:10102000808783E4818784E482871386148615860B
:101030001686178681E02FCBEE0FFF1F881F8BBF10
:101040000790F691E02D199481E090E0F89457C351
:10105000CF93DF93CDB7DEB72E970FB6F894DEBFF0
:101060000FBECDBF85E08C838C899D899A8389834F
:10107000AE01485E5F4F6E897F89CE010196BBD17C
:101080002E960FB6F894DEBF0FBECDBFDF91CF9185
:10109000089520FD09C0FC0123FD05C022FF02C008
:1010A0007383628351834083089544FD17C046FDD6
:1010B00017C0AB01BC01DA01FB01AA0FBB1FEE1F79
:1010C000FF1F1094D1F74A0F5B1F6E1F7F1FCB01CC
:1010D000BA01660F771F881F991F09C033E001C04E
:1010E00034E0660F771F881F991F3150D1F7620FC8
:1010F000711D811D911D08950F931F93CF93DF9351
:101100008C01C801A2D2EC0197FD06C08BD2892BBD
:10111000C1F7B801CE01D7D2CE01DF91CF911F9197
:101120000F9108958F929F92AF92BF92EF92FF928C
:101130000F931F93CF93DF938C01D62F7A01B22E9A
:1011400084D29C0133272B32310531F02D32310509
:1011500059F48B2D8068B82ED15011F480E061C015
:10116000C80173D297FDFACFCB2DCD7F2B2D2073E5
:10117000F9F48033E9F4AA24AA94AD0E09F43EC030
:10118000C80163D297FD3AC09C012F7D33272835D3
:10119000310541F4C264D25089F1C80156D297FF9B
:1011A00007C02CC0B6FE02C0C26001C0C261DA2D09
:1011B000812C912C540120ED280F283078F0C4FFA9
:1011C00003C0B80180D217C02A3040F0C6FFF9CF63
:1011D0002F7D3FEE320F3630A0F727504C2FC50140
:1011E000B40163DF4B015C01C260D15051F0C80112
:1011F0002CD297FFE0CFC1FD04C0B0CF812C912C41
:101200005401C7FF08C0B094A09490948094811CAE
:10121000911CA11CB11C2C2FB501A401C70139DF01
:1012200081E0DF91CF911F910F91FF90EF90BF90E0
:10123000AF909F908F9008955F926F927F928F9260
:101240009F92AF92BF92CF92DF92EF92FF920F9355
:101250001F93CF93DF93CDB7DEB7A0970FB6F89467
:10126000DEBF0FBECDBF5C01962E7A01F9018E0163
:101270000F5F1F4F680180E2D8011D928A95E9F740
:10128000D50113968C9080E090E0612C712C30E0B9
:1012900061E070E083FC259183FE21918F01522E45
:1012A000211103C080E090E090C02E3511F400972A
:1012B00051F1432F50E0481759073CF42D3559F1AF
:1012C0002D3219F4772009F103C0772009F468C0A2
:1012D000452D469546954695D601A40FB11D452D41
:1012E00047708B0102C0000F111F4A95E2F7A80159
:1012F0005C91452B4C93651459F0561410F453949B
:10130000E7CF5A94E5CF31E004C07724739401C04D
:10131000712C0196BFCF772019F08E8180628E8369
:10132000311103C08824839417C0F6019E012F5DFC
:101330003F4F8081809581932E173F07D1F7F2CFE1
:10134000E114F10429F0D7018C93F70131967F0164
:101350009A94812C9920E9F0C50177D197FD17C0A7
:10136000FC01FF2723E0F595E7952A95E1F7EC0DC1
:10137000FD1D208130E0AC014770552702C0359536
:1013800027954A95E2F720FDDBCFB5019CD181106E
:1013900089CFE114F10411F0D7011C92C80115C0E6
:1013A000422F469546954695D601A40FB11D422F72
:1013B00047708B0102C0000F111F4A95E2F7A80188
:1013C0005C91452B4C93622EA4CFA0960FB6F89457
:1013D000DEBF0FBECDBFDF91CF911F910F91FF9068
:1013E000EF90DF90CF90BF90AF909F908F907F90C5
:1013F0006F905F9008955F926F927F928F929F920D
:10140000AF92BF92CF92DF92EF92FF920F931F9312
:10141000CF93DF936C01EB015A01FC011782168216
:10142000512CF601E380FE01E3FC8591E3FE8191FE
:10143000182FEF01882309F4E0C090E0F3D0892B46
:1014400019F0C60159DEEDCF153241F4FE01E3FC7F
:101450001591E3FE1191EF01153271F4C601F5D03B
:1014600097FDC9C0412F50E09C0133272417350751
:10147000C1F2B60128D1C1C01A3239F4E3FC15918A
:10148000E3FE1191EF0101E001C000E0F12C20ED3D
:10149000210F2A3078F402606F2D70E080E090E038
:1014A00040E203DEF62EFE01E3FC1591E3FE11910E
:1014B000EF01EDCF01FF03C0F11003C09EC0FF2478
:1014C000FA94183619F01C3651F010C0FE01E3FCF6
:1014D0001591E3FE1191EF01183641F408600460A4
:1014E000FE01E3FC1591E3FE1191EF01112309F4D4
:1014F00084C0612F70E088E091E09CD0892B09F4D2
:101500007CC000FD07C0F50180809180C501029676
:101510005C0102C0812C912C1E3649F4F6014681F3
:10152000578160E070E0202FC401B3DD7ACF13361D
:10153000A1F401FD02C0FF24F394C60186D097FDFB
:101540005AC08114910429F0F4018083C4010196EA
:101550004C01FA94F110F1CF4AC01B3551F49E01B1
:10156000A4016F2DC60168DEEC01892B09F03FC094
:1015700039C0C601C1DD97FD3EC01F3649F128F4D0
:10158000143621F1193639F125C0133771F01537AA
:10159000E9F020C08114910429F0F4016082C401B3
:1015A00001964C01FA94FF2059F0C6014ED03C013F
:1015B00097FD06C037D0892B69F3B601C30183D0EC
:1015C00081149104A1F0F401108211C0006203C0E3
:1015D000006101C00064202FA4016F2DC601A2DDAF
:1015E000811105C0F6018381807329F406C000FDD6
:1015F00018CF539416CF552019F0852D90E002C0D6
:101600008FEF9FEFDF91CF911F910F91FF90EF90A0
:10161000DF90CF90BF90AF909F908F907F906F9012
:101620005F900895911168C0803219F089508550FB
:10163000D0F70895FC010590061621F00020D9F797
:10164000C00108953197CF010895CF93DF93EC0146
:101650002B8120FF33C026FF0AC02F7B2B838E8176
:101660009F8101969F838E838A8190E029C022FF0B
:101670000FC0E881F9818081082E000C990B00973A
:1016800019F420622B831AC03196F983E8830EC0C7
:10169000EA85FB85199597FF09C02B81019611F00A
:1016A00080E201C080E1822B8B8308C02E813F81C4
:1016B0002F5F3F4F3F832E83992702C08FEF9FEF0D
:1016C000DF91CF910895FB01238120FF12C026FDF9
:1016D00010C08F3F3FEF930761F082832F7D20641E
:1016E0002383268137812150310937832683992727
:1016F00008958FEF9FEF0895992788270895F8940C
:02170000FFCF19
:1017020001010300000000EC039102F203F1032542
:02171200640071
:00000001FF
