:100000000C9435000C945D000C945D000C945D0024
:100010000C945D000C945D000C945D000C945D00EC
:100020000C945D000C945D000C945D000C945D00DC
:100030000C945D000C945D000C945D000C945D00CC
:100040000C9402030C945D000C94D0020C94AA0250
:100050000C944C030C945D000C945D000C945D00BA
:100060000C945D000C945D00A40411241FBECFEF1E
:10007000D8E0DEBFCDBF11E0A0E0B1E0E6E4FAE0F9
:1000800002C005900D92A033B107D9F721E0A0E39B
:10009000B1E001C01D92A93DB207E1F710E0C5E350
:1000A000D0E004C02197FE010E941B05C433D10794
:1000B000C9F70E9457030C9421050C940000AF92DD
:1000C000BF92CF92DF92EF92FF920F931F93CF9345
:1000D000DF936C017B018B01040F151FEB015E01A7
:1000E000AE18BF08C017D10759F06991D601ED913C
:1000F000FC910190F081E02DC6010995892B79F7DB
:10010000C501DF91CF911F910F91FF90EF90DF908C
:10011000CF90BF90AF900895AB01BC018CE391E00C
:100120000C945F00FC01538D448D252F30E0842F0B
:1001300090E0821B930B541710F0CF96089501970F
:100140000895FC01918D828D981761F0A28DAE0FFC
:10015000BF2FB11D5D968C91928D9F5F9F73928F83
:1001600090E008958FEF9FEF0895FC01918D828DAF
:10017000981731F0828DE80FF11D858D90E008957C
:100180008FEF9FEF0895FC01918D228D892F90E0D4
:10019000805C9F4F821B91098F73992708958CE390
:1001A00091E00E94C30021E0892B09F420E0822F16
:1001B000089580E090E0892B29F00E94CF00811102
:1001C0000C9400000895FC01A48DA80FB92FB11D57
:1001D000A35ABF4F2C91848D90E001968F7399277D
:1001E000848FA689B7892C93A089B1898C9183705B
:1001F00080648C93938D848D981306C00288F38954
:10020000E02D80818F7D80830895EF92FF920F9380
:100210001F93CF93DF93EC0181E0888F9B8D8C8DB2
:1002200098131AC0E889F989808185FF15C09FB7A6
:10023000F894EE89FF896083E889F9898081837069
:10024000806480839FBF81E090E0DF91CF911F9118
:100250000F91FF90EF900895F62E0B8D10E00F5F39
:100260001F4F0F731127E02E8C8D8E110CC00FB60F
:1002700007FCFACFE889F989808185FFF5CFCE01A7
:100280000E94E300F1CFEB8DEC0FFD2FF11DE35A3F
:10029000FF4FF0829FB7F8940B8FEA89FB8980812A
:1002A0008062CFCF6AE08CE391E00C940501CF939C
:1002B000DF93EC01888D8823B9F0AA89BB89E8898E
:1002C000F9898C9185FD03C0808186FD0DC00FB634
:1002D00007FCF7CF8C9185FFF2CF808185FFEDCFB2
:1002E000CE010E94E300E9CFDF91CF9108953FB79F
:1002F000F8948091350190913601A0913701B09129
:10030000380126B5A89B05C02F3F19F00196A11D05
:10031000B11D3FBFBA2FA92F982F8827BC01CD014F
:10032000620F711D811D911D42E0660F771F881FAE
:10033000991F4A95D1F708958F929F92AF92BF92DD
:10034000CF92DF92EF92FF924B015C010E94770106
:100350006B017C010E9477016C197D098E099F0950
:10036000683E734081059105A8F321E0821A910847
:10037000A108B10888EEC80E83E0D81EE11CF11C6C
:1003800081149104A104B10429F7FF90EF90DF904C
:10039000CF90BF90AF909F908F900895FC01680F11
:1003A000791F2FEF88EBE617F70779F091919227E5
:1003B00048E050E0292F30E03595279590FD28271B
:1003C00041505109922FB1F7EECF822F08955A9ADA
:1003D00061E070E080E090E00C949C01CF92DF92AD
:1003E000EF92FF920F931F93CF93DF93CDB7DEB7BA
:1003F000A1970FB6F894DEBF0FBECDBF9C0150E0B1
:1004000040E019A28E010F5D1F4F8AE0C82ED12C4B
:10041000E12CF12CCA01B901A70196010E94E50463
:10042000605DF80162938F01211531054105510589
:1004300089F7309731F101900020E9F73197AF014A
:10044000401B510BB8018CE391E00E945F008C01CE
:1004500042E050E063E171E08CE391E00E945F00D4
:10046000800F911FA1960FB6F894DEBF0FBECDBFCF
:10047000DF91CF911F910F91FF90EF90DF90CF9080
:10048000089510E000E0E4CF7F928F929F92AF92A8
:10049000BF92CF92DF92EF92FF920F931F93CF9371
:1004A000DF938C01742EEB012196CE0165E070E0A4
:1004B0000E94D1045B01892B19F481E0A81AB108CC
:1004C00065E08CE391E00E9405016801F12CE12CCC
:1004D0002197C00FD11F65E070E0C6010E94CE01D8
:1004E000882E912CAE14BF0419F488818725888347
:1004F00065E070E0C6010E948C000E945201C401B8
:100500000E94EE018FEFE81AF80A85E0C80ED11CB0
:1005100084E0E816F104F9F60C5E1F4F64E070E029
:10052000C8010E948C000E94520164E070E0C80182
:100530000E94CE0190E0DF91CF911F910F91FF902B
:10054000EF90DF90CF90BF90AF909F908F907F9073
:100550000C94EE011F920F920FB60F9211242F935D
:100560003F934F935F936F937F938F939F93AF933B
:10057000BF93EF93FF938CE391E00E94E300FF9120
:10058000EF91BF91AF919F918F917F916F915F910B
:100590004F913F912F910F900FBE0F901F90189584
:1005A0001F920F920FB60F9211242F938F939F9348
:1005B000EF93FF93E0914C01F0914D018081E09128
:1005C0005201F091530182FD1BC090818091550131
:1005D0008F5F8F7320915601821741F0E091550192
:1005E000F0E0E45CFE4F958F80935501FF91EF9111
:1005F0009F918F912F910F900FBE0F901F90189584
:100600008081F4CF1F920F920FB60F9211242F9377
:100610003F938F939F93AF93BF93809131019091BC
:100620003201A0913301B09134013091300123E0C7
:10063000230F2D3758F50196A11DB11D20933001D0
:100640008093310190933201A0933301B093340130
:100650008091350190913601A0913701B091380118
:100660000196A11DB11D8093350190933601A09391
:100670003701B0933801BF91AF919F918F913F9116
:100680002F910F900FBE0F901F90189526E8230F03
:100690000296A11DB11DD2CF1F920F920FB60F92DD
:1006A00011245A980F900FBE0F901F901895CF935A
:1006B000DF93CDB7DEB769970FB6F894DEBF0FBEF4
:1006C000CDBF789484B5826084BD84B5816084BDDB
:1006D00085B5826085BD85B5816085BD80916E00E0
:1006E000816080936E001092810080918100826011
:1006F000809381008091810081608093810080914E
:1007000080008160809380008091B100846080933C
:10071000B1008091B00081608093B00080917A0038
:10072000846080937A0080917A00826080937A005E
:1007300080917A00816080937A0080917A0080684D
:1007400080937A001092C10068EE73E080E090E040
:100750000E949C018FEF84B915B887E08AB988EFB1
:100760008BB9E0914C01F0914D0182E08083E091E2
:100770004801F09149011082E0914A01F0914B014A
:100780008FEC808310925401E0915001F09151015F
:1007900086E08083E0914E01F0914F01808180617D
:1007A0008083E0914E01F0914F01808188608083C9
:1007B000E0914E01F0914F01808180688083E0914B
:1007C0004E01F0914F0180818F7D80838091C10027
:1007D00084648093C1008091C00081608093C000D8
:1007E00061E070E080E090E00E949C0181E08093F5
:1007F0003B0185B96E0185E1C80ED11C80E0A82EB1
:1008000080E0B82E11E089B18CE391E00E94C30032
:10081000892BA9F08CE391E00E94A1009091000146
:100820009923B9F090913B01891309C010920001FE
:1008300010933A018091C0008E7F8093C000A11474
:10084000B10409F30E94CF008823E9F20E9400005E
:10085000DACF90913A01992309F46DC08093390160
:1008600010923A01813A59F3813BD1F5109300017E
:100870000E94E70189E1E6E1F1E0DE0111960190D5
:100880000D928A95E1F765E08CE391E00E94050105
:10089000CE0101967C0165E070E0C7010E948C00EA
:1008A0000E94520165E070E0C7010E94CE0190E015
:1008B0000E94EE0195E0E90EF11CCE14DF0459F719
:1008C00064E070E0C6010E948C000E94520164E066
:1008D00070E0C6010E94CE0190E00E94EE01AFCF11
:1008E000813CA9F4109300010E94E70189E1E6E14F
:1008F000F1E0DE01119601900D928A95E1F741E059
:1009000070E060E0CE0101960E94440298CF813DE4
:1009100009F095CF109300010E94E70189E1E6E11B
:10092000F1E0DE01119601900D928A95E1F747E022
:1009300067E070E0E7CF90913901913A09F07FCFFD
:100940001093000185B97BCFECE3F1E013821282B2
:1009500088EE93E0A0E0B0E084839583A683B7831C
:1009600085E091E09183808385EC90E09587848792
:1009700084EC90E09787868780EC90E0918B808B69
:1009800081EC90E0938B828B82EC90E0958B848B52
:1009900086EC90E0978B868B118E128E138E148EC0
:1009A000089597FB072E16F4009407D077FD09D021
:1009B0000E94070507FC05D03EF4909581959F4F56
:1009C0000895709561957F4F0895A1E21A2EAA1B94
:1009D000BB1BFD010DC0AA1FBB1FEE1FFF1FA217EF
:1009E000B307E407F50720F0A21BB30BE40BF50BEC
:1009F000661F771F881F991F1A9469F76095709575
:100A0000809590959B01AC01BD01CF010895AA1B73
:100A1000BB1B51E107C0AA1FBB1FA617B70710F0E9
:100A2000A61BB70B881F991F5A95A9F7809590951B
:100A3000BC01CD010895EE0FFF1F0590F491E02D4C
:060A40000994F894FFCFB9
:100A4600010000000005015F0092005701C300A1EC
:100A560000B5000D0A004368616C79692044616E37
:100A6600796C6F2054617261736F767963680000E8
:107800000C94343C0C94513C0C94513C0C94513CE1
:107810000C94513C0C94513C0C94513C0C94513CB4
:107820000C94513C0C94513C0C94513C0C94513CA4
:107830000C94513C0C94513C0C94513C0C94513C94
:107840000C94513C0C94513C0C94513C0C94513C84
:107850000C94513C0C94513C0C94513C0C94513C74
:107860000C94513C0C94513C11241FBECFEFD8E036
:10787000DEBFCDBF11E0A0E0B1E0ECE9FFE702C060
:1078800005900D92A230B107D9F712E0A2E0B1E065
:1078900001C01D92AD30B107E1F70E942D3D0C945F
:1078A000CC3F0C94003C982F959595959595959582
:1078B000905D8F708A307CF0282F295A8091C0000B
:1078C00085FFFCCF9093C6008091C00085FFFCCF60
:1078D0002093C6000895282F205DF0CF982F809127
:1078E000C00085FFFCCF9093C6000895EF92FF92F1
:1078F0000F931F93EE24FF2487018091C00087FD22
:1079000017C00894E11CF11C011D111D81E4E8164B
:1079100082E4F8068FE0080780E0180770F3E09132
:107920000401F091050109958091C00087FFE9CF1E
:107930008091C6001F910F91FF90EF9008950E94D3
:10794000763C982F8091C00085FFFCCF9093C600B5
:1079500091362CF490330CF09053892F089597555D
:10796000892F08951F930E949F3C182F0E949F3CCF
:107970001295107F810F1F9108951F93182F882350
:1079800021F00E94763C1150E1F71F9108951F935A
:10799000182F0E94763C803249F0809103018F5F5E
:1079A000809303018530C1F01F9108958091C0003C
:1079B00085FFFCCF84E18093C6008091C00085FFE5
:1079C000FCCF1093C6008091C00085FFFCCF80E102
:1079D0008093C6001F910895E0910401F091050184
:1079E00009951F9108950E94763C803241F0809164
:1079F00003018F5F80930301853081F008958091AA
:107A0000C00085FFFCCF84E18093C6008091C00058
:107A100085FFFCCF80E18093C6000895E0910401CA
:107A2000F09105010995089540E951E08823A1F0FE
:107A30002D9A28EE33E0FA013197F1F721503040CA
:107A4000D1F72D9828EE33E0FA013197F1F7215064
:107A50003040D1F7815061F708953F924F925F9285
:107A60006F927F928F929F92AF92BF92CF92DF924E
:107A7000EF92FF920F931F93CF93DF93000080E16B
:107A80008093C4001092C50088E18093C10086E015
:107A90008093C2005098589A259A81E00E94143D24
:107AA00024E1F22E9EE1E92E85E9D82E0FE0C02ECA
:107AB00010E1B12EAA24A394B1E49B2EA6E58A2E50
:107AC000F2E57F2EE0E26E2E79E4572E63E5462E36
:107AD00050E5352E0E94763C8033B1F18133B9F107
:107AE000803409F46FC0813409F476C0823409F41B
:107AF00085C0853409F488C0803531F1823521F1A3
:107B0000813511F1853509F485C0863509F48DC0BC
:107B1000843609F496C0843709F403C1853709F423
:107B200072C1863709F466C0809103018F5F80932C
:107B30000301853079F6E0910401F0910501099582
:107B40000E94763C803351F60E94F33CC3CF0E94E2
:107B5000763C803249F78091C00085FFFCCFF092DF
:107B6000C6008091C00085FFFCCF9092C600809136
:107B7000C00085FFFCCF8092C6008091C00085FFC9
:107B8000FCCF7092C6008091C00085FFFCCF609250
:107B9000C6008091C00085FFFCCF5092C600809146
:107BA000C00085FFFCCF4092C6008091C00085FFD9
:107BB000FCCF3092C6008091C00085FFFCCFB09210
:107BC000C60088CF0E94763C863808F4BDCF0E945C
:107BD000763C0E94F33C7ECF0E94763C803809F4CC
:107BE0009CC0813809F40BC1823809F43CC1883942
:107BF00009F48FC080E00E94C73C6CCF84E10E94F2
:107C0000BD3C0E94F33C66CF85E00E94BD3C0E94D3
:107C1000F33C60CF0E94763C809306010E94763C44
:107C2000809307010E94F33C55CF0E94763C80333D
:107C300009F41DC183E00E94BD3C80E00E94C73C66
:107C400049CF0E94763C809309020E94763C809343
:107C5000080280910C028E7F80930C020E94763C79
:107C6000853409F415C18091080290910902892B8D
:107C700089F000E010E00E94763CF801E85FFE4FDA
:107C800080830F5F1F4F80910802909109020817AF
:107C9000190788F30E94763C803209F045CF809125
:107CA0000C0280FF01C16091060170910701660F0F
:107CB000771F7093070160930601A0910802B091AD
:107CC00009021097C9F0E8E0F1E09B01AD014E0F09
:107CD0005F1FF999FECF32BD21BD819180BDFA9A17
:107CE000F99A2F5F3F4FE417F50799F76A0F7B1F4B
:107CF00070930701609306018091C00085FFFCCF5F
:107D0000F092C6008091C00085FFFCCFB092C60003
:107D1000E1CE83E00E94C73CDDCE82E00E94C73CFA
:107D2000D9CE0E94763C809309020E94763C8093D3
:107D300008028091060190910701880F991F909386
:107D40000701809306010E94763C853409F4A6C0A1
:107D500080910C028E7F80930C020E94763C8032D0
:107D600009F0B8CE8091C00085FFFCCFF092C6002C
:107D7000609108027091090261157105B9F140E046
:107D800050E080910C02A82FA170B82FB27011C0E2
:107D9000BB2309F45CC0E0910601F0910701319624
:107DA000F0930701E09306014F5F5F4F46175707B7
:107DB000E8F4AA2369F3F999FECF209106013091E6
:107DC000070132BD21BDF89A90B58091C00085FFB2
:107DD000FCCF9093C6002F5F3F4F30930701209355
:107DE00006014F5F5F4F4617570718F38091C00099
:107DF00085FDE5CE8091C00085FFF8CFE0CE81E023
:107E00000E94C73C67CE0E94763C803209F08CCE3F
:107E10008091C00085FFFCCFF092C6008091C00029
:107E200085FFFCCFE092C6008091C00085FFFCCFAB
:107E3000D092C6008091C00085FFFCCFC092C600E2
:107E40008091C00085FFFCCFB092C60043CEE09188
:107E50000601F091070194918091C00085FFFCCF4D
:107E60009093C6009CCF80E10E94C73C33CE0E9415
:107E7000763C0E94763C182F0E94763C112309F430
:107E800083C0113009F484C08FE00E94C73C22CE29
:107E900080910C02816080930C02E5CE80910C02EF
:107EA000816080930C0259CF809107018823880F4D
:107EB000880B8A2180930B02809106019091070123
:107EC000880F991F90930701809306018091080203
:107ED00080FF09C080910802909109020196909359
:107EE000090280930802F894F999FECF1127E091D6
:107EF0000601F0910701C8E0D1E08091080290915D
:107F00000902103091F40091570001700130D9F34B
:107F100003E000935700E89500915700017001308D
:107F2000D9F301E100935700E89509901990009169
:107F3000570001700130D9F301E000935700E89534
:107F40001395103498F011270091570001700130FB
:107F5000D9F305E000935700E895009157000170B0
:107F60000130D9F301E100935700E895329602976A
:107F700009F0C7CF103011F00296E5CF112480919F
:107F8000C00085FFB9CEBCCE8EE10E94C73CA2CD19
:0C7F900085E90E94C73C9ECDF894FFCF0D
:027F9C00800063
:040000030000780081
:00000001FF
