:1000000072C000009EC000009CC000009AC00000AA
:1000100098C0000096C0000094C0000092C000008C
:1000200090C000008EC000008CC000008AC000009C
:1000300088C0000086C0000084C0000082C00000AC
:1000400080C000007EC000007CC000007AC00000BC
:1000500078C0000076C0000074C00000D5C2000067
:1000600070C0000044C3000019C300006AC0000053
:1000700068C0000066C0000064C0000062C00000EC
:1000800060C000005EC000005CC000005AC00000FC
:1000900058C0000056C0000054C0000052C000000C
:1000A00050C000004EC000004CC000004AC000001C
:1000B00048C0000046C0000044C0000042C000002C
:1000C00040C000003EC000003CC000003AC000003C
:1000D00038C0000036C0000034C0000032C000004C
:1000E00030C000000A0511241FBECFEFD1E2DEBFF1
:1000F000CDBF00E00CBF12E0A0E0B2E0ECE1FBE01D
:1001000000E00BBF02C007900D92A633B107D9F7EC
:1001100022E0A6E3B2E001C01D92AF3DB207E1F7D5
:1001200010E0C3E7D0E000E005C021970109802F6F
:10013000FE01E6D4C237D10780E00807B1F718D333
:10014000EBC45ECF3FB7F89480913E0290913F029E
:10015000A0914002B091410226B5A89B05C02F3F57
:1001600019F00196A11DB11D3FBFBA2FA92F982FDD
:100170008827820F911DA11DB11DBC01CD0142E058
:10018000660F771F881F991F4A95D1F708958F92A0
:100190009F92AF92BF92CF92DF92EF92FF926B014C
:1001A0007C01D0DF4B015C01C114D104E104F104F6
:1001B000E9F0C8DFDC01CB0188199909AA09BB095C
:1001C000883E9340A105B10578F321E0C21AD10819
:1001D000E108F10888EE880E83E0981EA11CB11C8E
:1001E000C114D104E104F10421F7DECFFF90EF90B8
:1001F000DF90CF90BF90AF909F908F900895CF9257
:10020000DF92EF92FF920F931F93CF93DF936C01D6
:100210007A018B01C0E0D0E0CE15DF0581F0D80176
:100220006D918D01D601ED91FC910190F081E02D51
:10023000C6011995892B11F02196EECF7E01C701D9
:10024000DF91CF911F910F91FF90EF90DF90CF90B2
:100250000895AB01BC0182E492E0D1CF089580E023
:1002600090E00895FC01538D448D252F30E0842FBC
:1002700090E0821B930B541710F0CF9608950197CE
:100280000895FC01918D828D981761F0828DDF01B8
:10029000A80FB11D5D968C91928D9F5F9F73928F79
:1002A00090E008958FEF9FEF0895FC01918D828D6E
:1002B000981731F0828DE80FF11D858D90E008953B
:1002C0008FEF9FEF0895FC01918D228D892F90E093
:1002D000805C9F4F821B91098F739927089582E458
:1002E00092E0F1DF21E0892B09F420E0822F0895CC
:1002F000FC01848DDF01A80FB11DA35ABF4F2C91C3
:10030000848D90E001968F739927848FA689B78991
:100310002C93A089B1898C91837080648C93938D88
:10032000848D981306C00288F389E02D80818F7D2B
:1003300080830895EF92FF920F931F93CF93DF93E3
:10034000EC0181E0888F9B8D8C8D981305C0E88926
:10035000F989808185FD25C0F62E0B8D10E00F5F99
:100360001F4F0F731127E02E8C8DE8120BC00FB6B4
:1003700007FCFACFE889F989808185FFF5CFCE01A6
:10038000B7DFF2CF8B8DFE01E80FF11DE35AFF4F6F
:10039000F0829FB7F8940B8FEA89FB898081806295
:1003A0000AC09FB7F894EE89FF896083E889F989CC
:1003B00080818370806480839FBF81E090E0DF91C3
:1003C000CF911F910F91FF90EF9008956AE082E422
:1003D00092E0B0CFCF93DF93EC01888D8823C1F0FA
:1003E000EA89FB89808185FD05C0A889B9898C913E
:1003F00086FD0EC00FB607FCF5CF808185FFF2CFDA
:10040000A889B9898C9185FFEDCFCE0171DFE8CF46
:10041000DF91CF91089580E090E0892B19F05FDFA4
:10042000811125C080E090E0892B41F080E090E0D0
:10043000892B21F00E94000081111CC080E090E017
:10044000892B41F080E090E0892B21F00E94000090
:10045000811113C080E090E0892BA1F080E090E052
:10046000892B81F00E94000081110AC008950E942A
:100470000000D8CF0E940000E1CF0E940000EACF28
:100480000C9400000895FC01680F791F9FEF88EB22
:10049000E617F70791F02191922748E050E0292FC5
:1004A00030E03595279590FF03C0922F982701C023
:1004B000922F4150510999F7EBCF892F08955A9AFD
:1004C00061E070E080E090E062CECF92DF92EF9248
:1004D000FF920F931F93CF93DF93CDB7DEB7A19712
:1004E0000FB6F894DEBF0FBECDBF9C0140E050E0D8
:1004F00019A28E010F5D1F4F8AE0C82ED12CE12C6E
:10050000F12CCA01B901A7019601C4D2605DF801BE
:1005100062938F01211531054105510591F73097FF
:1005200069F001900020E9F73197AF01401B510BB2
:10053000B80182E492E063DE8C0102C000E010E0CA
:1005400042E050E063E172E082E492E058DE800F26
:10055000911FA1960FB6F894DEBF0FBECDBFDF91FD
:10056000CF911F910F91FF90EF90DF90CF90089562
:100570009F92AF92BF92CF92DF92EF92FF920F9332
:100580001F93CF93DF937C01942EEB012196CE0134
:1005900065E070E06CD28B01892B11F401501109D8
:1005A00063E082E492E0C6DE6701E12CF12C219742
:1005B000CC0DDD1D65E070E0C60165DFA82EB12C15
:1005C0000E151F0519F488818925888365E070E080
:1005D000C6013FDEFBDEC50178DF8FEFE81AF80ABF
:1005E00085E0C80ED11C83E0E816F10419F7DF910D
:1005F000CF911F910F91FF90EF90DF90CF90BF9020
:10060000AF909F90089584D21F920F920FB60F92D1
:1006100011242F933F938F939F93AF93BF93809118
:100620003A0290913B02A0913C02B0913D02309180
:10063000390223E0230F2D3720F40196A11DB11DAF
:1006400005C026E8230F0296A11DB11D2093390293
:1006500080933A0290933B02A0933C02B0933D02F8
:1006600080913E0290913F02A0914002B0914102E0
:100670000196A11DB11D80933E0290933F02A0936D
:100680004002B0934102BF91AF919F918F913F91F2
:100690002F910F900FBE0F901F9018951F920F92E1
:1006A0000FB60F9211240BB60F922F933F934F93D7
:1006B0005F936F937F938F939F93AF93BF93EF93CA
:1006C000FF9382E492E014DEFF91EF91BF91AF912E
:1006D0009F918F917F916F915F914F913F912F915A
:1006E0000F900BBE0F900FBE0F901F9018951F928A
:1006F0000F920FB60F9211240BB60F922F938F9378
:100700009F93EF93FF93E0915202F0915302808107
:10071000E0915802F091590282FD12C090818091BF
:100720005B028F5F8F7320915C02821751F0E09122
:100730005B02F0E0EE5BFD4F958F80935B0201C0A2
:100740008081FF91EF919F918F912F910F900BBE20
:100750000F900FBE0F901F9018951F920F920FB61B
:100760000F9211245A980F900FBE0F901F9018955A
:10077000CF93DF93CDB7DEB760970FB6F894DEBFA7
:100780000FBECDBF789484B5826084BD84B581608E
:1007900084BD85B5826085BD85B5816085BD80914C
:1007A0006E00816080936E001092810080918100C4
:1007B00082608093810080918100816080938100BC
:1007C000809180008160809380008091B10084607E
:1007D0008093B1008091B00081608093B0008091DF
:1007E000910082608093910080919100816080935C
:1007F0009100809190008160809390008091A10091
:1008000082608093A1008091A10081608093A1000B
:100810008091A00081608093A0008091210182607E
:100820008093210180912101816080932101809139
:10083000200181608093200180917A008460809300
:100840007A0080917A00826080937A0080917A00A9
:10085000816080937A0080917A00806880937A002A
:100860001092C10068EE73E080E090E090DC8FEFC2
:1008700084B915B887E08AB988EF8BB9E091520244
:10088000F091530282E08083E0914E02F0914F029A
:100890001082E0915002F09151028FEC808310920F
:1008A0005A02E0915602F091570286E08083E0916F
:1008B0005402F0915502808180618083E09154025E
:1008C000F0915502808188608083E0915402F0911C
:1008D0005502808180688083E0915402F091550236
:1008E00080818F7D80838091C10084648093C1006A
:1008F0008091C00081608093C00061E070E080E082
:1009000090E045DC81E08093380285B911E06E010A
:1009100080E1C80ED11C89B182E492E0D4DC892B3D
:1009200009F476C082E492E0ACDC90910002992355
:1009300071F09091380289136BC0109200021093ED
:1009400037028091C0008E7F8093C00061C090917B
:100950003702992309F455C080933602109237026A
:10096000813A09F455C0813B29F510930002A7DDB7
:100970008FE0E6E1F2E0DE01119601900D928A959A
:10098000E1F763E082E492E0D5DCCE0101967C01E0
:1009900065E070E0C7015DDC19DD65E070E0C7016E
:1009A00072DD90E092DD95E0E90EF11CCE14DF04DB
:1009B00079F72EC0813C81F41093000280DD8FE036
:1009C000E6E1F2E0DE01119601900D928A95E1F7E1
:1009D00041E060E070E011C0813DD1F4109300026D
:1009E0006EDD80E1E5E2F2E0DE01119601900D920C
:1009F0008A95E1F747E067E070E0CE010196B8DD47
:100A000007C090913602913A19F41093000285B90B
:100A100002DD81CFE2E4F2E01382128288EE93E0FD
:100A2000A0E0B0E084839583A683B78385E092E05D
:100A30009183808385EC90E09587848784EC90E0B7
:100A40009787868780EC90E0918B808B81EC90E09B
:100A5000938B828B82EC90E0958B848B86EC90E07C
:100A6000978B868B118E128E138E148E089597FBA2
:100A7000072E16F4009406D077FD08D02DD007FC81
:100A800005D03EF4909581959F4F0895709561959E
:100A90007F4F0895A1E21A2EAA1BBB1BFD010DC0BA
:100AA000AA1FBB1FEE1FFF1FA217B307E407F5071E
:100AB00020F0A21BB30BE40BF50B661F771F881FFA
:100AC000991F1A9469F760957095809590959B0190
:100AD000AC01BD01CF010895AA1BBB1B51E107C0AA
:100AE000AA1FBB1FA617B70710F0A61BB70B881FBE
:100AF000991F5A95A9F780959095BC01CD0108954D
:100B0000EE0FFF1F881F8BBF0790F691E02D199401
:0C0B100081E090E0F89400C0F894FFCF62
:100B1C0001000000009A01FF003201EA016301416B
:100B2C000155010D0A005961736E79736B6120597F
:100B3C00756C6961005961736E79736B61205975BD
:060B4C006C696168000005
:00000001FF
