:100000000C9463000C948B000C948B000C948B006C
:100010000C948B000C948B000C948B000C948B0034
:100020000C948B000C948B000C948B000C948B0024
:100030000C948B000C948B000C948B000C948B0014
:100040000C9469030C948B000C94D9030C94B303A7
:100050000C948B000C948B000C948B000C948B00F4
:100060000C940B040C948B006364696E6F70737551
:1000700078585B0000000000240027002A000000E0
:100080000000250028002B000404040404040404D8
:100090000202020202020303030303030102040833
:1000A00010204080010204081020010204081020E2
:1000B0000000000800020100000304070000000027
:1000C00000000000390511241FBECFEFD8E0DEBFCD
:1000D000CDBF11E0A0E0B1E0ECE5F2E202C0059096
:1000E0000D92A834B107D9F722E0A8E4B1E001C02D
:1000F0001D92AE3BB207E1F710E0C3E6D0E004C0CA
:100100002197FE010E94D909C236D107C9F70E9482
:1001100072050C942C110C9400008F929F92AF9258
:10012000BF92CF92DF92EF92FF921F93CF93DF9314
:10013000CDB7DEB7D4500FB6F894DEBF0FBECDBF3B
:10014000FE013196C12CD12C76019F017E2D6D2DA3
:100150005C2D4427A8E0B0E04A015B01882410E848
:100160009122440F551F661F771F89288A288B28E4
:1001700021F015E641271DE35127119769F74193B7
:100180005193619371934FEFC41AD40AE40AF40AAD
:10019000C11411E0D106E104F104C1F6FC01808133
:1001A000F90114E08102E00DF11D1124808191819B
:1001B000A281B381BC01CD016095DC5F0FB6F894DC
:1001C000DEBF0FBECDBFDF91CF911F91FF90EF90AB
:1001D000DF90CF90BF90AF909F908F90089590E068
:1001E000FC01E055FF4F2491FC01E456FF4F349190
:1001F000FC01E857FF4FE491EE2309F43CC02223B1
:1002000039F1233091F038F42130A9F0223001F592
:1002100084B58F7D12C0273091F02830A1F02430B2
:10022000B9F4809180008F7D03C0809180008F772A
:10023000809380000DC084B58F7784BD09C0809104
:10024000B0008F7703C08091B0008F7D8093B000A5
:10025000F0E0EE0FFF1FE258FF4FA591B4919FB75A
:10026000F894611104C08C913095382302C0EC9150
:100270003E2B3C939FBF08953FB7F89480910D02A9
:1002800090910E02A0910F02B091100226B5A89B8A
:1002900005C02F3F19F00196A11DB11D3FBFBA2F18
:1002A000A92F982F8827820F911DA11DB11DBC0178
:1002B000CD0142E0660F771F881F991F4A95D1F73D
:1002C00008958F929F92AF92BF92CF92DF92EF925A
:1002D000FF926B017C010E943C014B015C01C11447
:1002E000D104E104F104F1F00E943C01DC01CB01F6
:1002F00088199909AA09BB09883E9340A105B1054F
:1003000070F321E0C21AD108E108F10888EE880EE6
:1003100083E0981EA11CB11CC114D104E104F104B6
:1003200019F7DDCFFF90EF90DF90CF90BF90AF90A7
:100330009F908F9008958091B00190E02091AF013F
:10034000821B9109089508950895CF92DF92EF924C
:10035000FF920F931F93CF93DF936C017A018B0170
:10036000C0E0D0E0CE15DF0581F0D8016D918D01A0
:10037000D601ED91FC910190F081E02DC601099527
:10038000892B11F02196EECF7E01C701DF91CF912D
:100390001F910F91FF90EF90DF90CF900895FC0197
:1003A000538D448D252F30E0842F90E0821B930BDA
:1003B000541710F0CF96089501970895FC01918D80
:1003C000828D981761F0828DDF01A80FB11D5D96B7
:1003D0008C91928D9F5F9F73928F90E008958FEF25
:1003E0009FEF0895FC01918D828D981731F0828DD9
:1003F000E80FF11D858D90E008958FEF9FEF089530
:10040000FC01918D228D892F90E0805C9F4F821B93
:1004100091098F739927089581E192E00E9400026B
:1004200021E0892B09F420E0822F0895FC01848DBE
:10043000DF01A80FB11DA35ABF4F2C91848D90E00E
:1004400001968F739927848FA689B7892C93A089E9
:10045000B1898C91837080648C93938D848D981373
:1004600006C00288F389E02D80818F7D8083089506
:10047000EF92FF920F931F93CF93DF93EC0181E0F4
:10048000888F9B8D8C8D981305C0E889F9898081B0
:1004900085FD26C0F62E0B8D10E00F5F1F4F0F73EA
:1004A0001127E02E8C8DE8120CC00FB607FCFACF96
:1004B000E889F989808185FFF5CFCE010E94160277
:1004C000F1CF8B8DFE01E80FF11DE35AFF4FF08253
:1004D0009FB7F8940B8FEA89FB89808180620AC0FC
:1004E0009FB7F894EE89FF896083E889F989808154
:1004F0008370806480839FBF81E090E0DF91CF9123
:100500001F910F91FF90EF900895CF93DF93EC012F
:10051000888D8823C9F0EA89FB89808185FD05C023
:10052000A889B9898C9186FD0FC00FB607FCF5CF5D
:10053000808185FFF2CFA889B9898C9185FFEDCFA5
:10054000CE010E941602E7CFDF91CF91089580E09F
:1005500090E0892B29F00E940C0281110C9400007C
:10056000089585ED8093BC008091BC0084FDFCCF94
:100570001092D701089540916801262F30E0240F92
:10058000311D21323105DCF42091D7012430C9F42A
:10059000FC0180E090E0861758F4309168012191C9
:1005A000DC01A85BBE4FA30FB11D2C930196F3CFC6
:1005B00080916801680F6093680180E0089581E090
:1005C000089582E008950895E091AF018091B0010F
:1005D000E81730F4F0E0E157FE4F808190E0089595
:1005E0008FEF9FEF08959091AF018091B001981720
:1005F00050F4E92FF0E0E157FE4F208130E09F5F9B
:100600009093AF0102C02FEF3FEFC9010895CF9241
:10061000DF92EF92FF920F931F93CF93DF937C01B2
:10062000CB018A012091D801222389F0EB016B01D3
:10063000C40ED51ECC15DD0569F06991D701ED9189
:10064000FC910190F081E02DC7010995F3CF642F53
:100650000E94BB02C801DF91CF911F910F91FF90C3
:10066000EF90DF90CF900895CF93DF931F92CDB797
:10067000DEB769832091D8012223D1F02091FB01BC
:10068000203240F021E030E0FC013383228380E01F
:1006900090E015C08091D901E82FF0E0E652FE4FBE
:1006A000998190838F5F8093D9018093FB0105C06E
:1006B00061E0CE0101960E94BB0281E090E00F90C4
:1006C000DF91CF910895089580E090E008950E9411
:1006D000000B1F920F920FB60F9211242F933F938E
:1006E0008F939F93AF93BF938091090290910A02D9
:1006F000A0910B02B0910C023091080223E0230F6D
:100700002D3720F40196A11DB11D05C026E8230F49
:100710000296A11DB11D20930802809309029093B7
:100720000A02A0930B02B0930C0280910D029091EB
:100730000E02A0910F02B09110020196A11DB11DF1
:1007400080930D0290930E02A0930F02B0931002BB
:10075000BF91AF919F918F913F912F910F900FBEBD
:100760000F901F9018951F920F920FB60F921124A1
:100770002F933F934F935F936F937F938F939F93A9
:10078000AF93BF93EF93FF9381E192E00E94160233
:10079000FF91EF91BF91AF919F918F917F916F9159
:1007A0005F914F913F912F910F900FBE0F901F902F
:1007B00018951F920F920FB60F9211242F938F93BB
:1007C0009F93EF93FF93E0912102F09122028081A9
:1007D000E0912702F091280282FD12C09081809161
:1007E0002A028F5F8F7320912B02821751F0E091C4
:1007F0002A02F0E0EF5EFD4F958F80932A0201C040
:100800008081FF91EF919F918F912F910F900FBE5B
:100810000F901F9018951F920F920FB60F921124F0
:100820002F933F934F935F936F937F938F939F93F8
:10083000AF93BF93EF93FF938091B900887F803689
:1008400009F49CC068F5883209F45BC090F48031EB
:1008500009F454C038F4882309F4F6C0883009F448
:100860004DC0F6C0883109F44CC0803209F45DC037
:10087000EFC0803409F468C048F4803309F455C0EF
:10088000883309F0E5C08093D501D8C0803509F4DC
:100890004FC0883509F45DC0883409F0D9C0D6C08E
:1008A000883909F4C7C0A8F4883709F467C038F458
:1008B000883609F463C0803709F460C0C9C088383D
:1008C00009F4B8C0803909F45FC0803809F0C0C0AD
:1008D0005BC0803B09F486C038F4803A09F466C0F6
:1008E000883A09F47FC0B4C0803C09F4A7C0883CB2
:1008F00009F4A4C0883B09F48AC0AAC08091B2015F
:1009000010C09091D4018091D301981770F5E091B7
:10091000D40181E08E0F8093D401F0E0ED54FE4FBE
:1009200080818093BB0085EC86C08093D5018EC00A
:10093000E091D40181E08E0F8093D4018091BB00BF
:10094000F0E0ED54FE4F80839091D4018091D3016B
:100950006EC0E091D40181E08E0F8093D40180912C
:10096000BB00F0E0ED54FE4F80838091D6018111F1
:100970006DC081E08093B10184EA61C083E080931F
:10098000D70110928A01CFCF80918A01803208F07E
:1009900051C0E0918A0181E08E0F80938A0180919D
:1009A000BB00F0E0E659FE4F8083BDCF85EC80931D
:1009B000BC001092D70180918A01803230F4E0911E
:1009C0008A01F0E0E659FE4F108260918A0170E0E2
:1009D000E0918B01F0918C018AE691E009951092EB
:1009E0008A0136C084E08093D70110926901109289
:1009F0006801E0918D01F0918E0109958091680167
:100A0000811105C081E08093680110924801E09156
:100A1000690181E08E0F80936901F0E0E85BFE4F91
:100A200080818093BB009091690180916801981743
:100A300008F479CF85E88093BC000AC085EC8093E8
:100A4000BC001092D70104C01092D5010E94B102DF
:100A5000FF91EF91BF91AF919F918F917F916F9196
:100A60005F914F913F912F910F900FBE0F901F906C
:100A70001895E1E1F2E01382128288EE93E0A0E0A3
:100A8000B0E084839583A683B7832EE031E0318381
:100A9000208325EC30E03587248724EC30E037874D
:100AA000268720EC30E0318B208B21EC30E0338B3B
:100AB000228B22EC30E0358B248B26EC30E0378B18
:100AC000268B118E128E138E148EEEEAF2E01382B4
:100AD000128284839583A683B78380E291E0918319
:100AE00080830895CF93DF93CDB7DEB7AA970FB673
:100AF000F894DEBF0FBECDBF789484B5826084BD0C
:100B000084B5816084BD85B5826085BD85B5816011
:100B100085BD80916E00816080936E00109281008F
:100B2000809181008260809381008091810081604A
:100B3000809381008091800081608093800080910B
:100B4000B10084608093B1008091B0008160809397
:100B5000B00080917A00846080937A0080917A005E
:100B6000826080937A0080917A00816080937A001D
:100B700080917A00806880937A001092C100109270
:100B8000AF011092B0011092D9011092FB011092A6
:100B9000D70181E08093D6011092B10161E082E13A
:100BA0000E94EF0061E083E10E94EF008091B900B4
:100BB0008E7F8093B9008091B9008D7F8093B900BA
:100BC00088E48093B80085E48093BC0083EA91E0D8
:100BD00090938E0180938D0184EA91E090938C0133
:100BE00080938B01E0912102F091220282E08083C8
:100BF000E0911D02F0911E021082E0911F02F0911F
:100C000020028AE8808310922902E0912502F09167
:100C1000260286E08083E0912302F0912402808105
:100C200080618083E0912302F091240280818860BA
:100C30008083E0912302F091240280818068808388
:100C4000E0912302F091240280818F7D8083EEE980
:100C5000F0E02491EAE8F0E08491882399F090E0B4
:100C6000880F991FFC01EC58FF4FA591B491FC012E
:100C7000E258FF4F859194918FB7F894EC91E22B55
:100C8000EC938FBF60E082E00E94EF0011E055EC32
:100C9000252ECE0101967C0166E3A62E61E0B62EDC
:100CA0001093D80198E29093FA011092D901109212
:100CB000FB018091D7018111FCCF1093D7011093D4
:100CC000D601AFEFA093D5011092D401B3E0B09359
:100CD000D3011093B2018091B20180658093B2017B
:100CE0008091B101813069F41092B1018091B2011B
:100CF0008093BB008091BC0083FDF8CF2092BC00A4
:100D000003C025EE2093BC008091D7018130E1F330
:100D10008091D401843018F49091D40101C094E002
:100D200043EB842E41E0942EAFE8B1E0F40180E083
:100D3000891721F021912D938F5FFACF1092AF0187
:100D40008093B001843009F0BDC08EEA92E00E9429
:100D5000F30290930702809306028EEA92E00E94CB
:100D6000F30290930502809304028EEA92E00E94BF
:100D7000F30290930302809302028EEA92E00E94B3
:100D8000F30290930102809300022091FB01213233
:100D900008F047C08091D7018111FCCF8091FA0102
:100DA00092E09093D7011093D601AFEFA093D501B5
:100DB0001092D4012093D301EAEDF1E090E02917DD
:100DC00031F03191D4013D934D019F5FF8CF1092E6
:100DD000B2019091B201880F892B8093B20180916A
:100DE000B101813069F41092B1018091B201809318
:100DF000BB008091BC0083FDF8CF2092BC0003C0F3
:100E0000B5EEB093BC008091D7018230E1F38091C0
:100E1000D5018F3F31F08091D501803211F0809162
:100E2000D5011092D9011092FB011092D801D090F7
:100E30000602C12C60910402709105026C297D2983
:100E40007F73072E000C880B990B0E94E00820E0AE
:100E500030E048EC5BE30E946C090E94A8087093A4
:100E60000301609302018091000290910102959527
:100E700087959595879590930102809300026091E4
:100E800002027091030236E0660F771F3A95E1F790
:100E9000682B792B072E000C880B990B0E94E00819
:100EA00020E030E045E25CE30E946C0920E030E0A5
:100EB00040E252E40E943B080E94A808709301019E
:100EC000609300011092FF011092FE0181E192E017
:100ED0000E940002892B09F4C5C082E390E00E94C1
:100EE000DF099093FD018093FC0165E070E080E0F4
:100EF00090E00E94610181E192E00E940002892B52
:100F000009F443C081E192E00E94DE014091FC01BE
:100F10005091FD012091FE013091FF018B3349F585
:100F2000FA01E20FF31F10821092FF011092FE01EE
:100F3000FF92EF928EE291E09F938F935F934F9396
:100F40000E94300B0F900F900F900F900F900F900A
:100F500089819A81853F910571F281E192E00E9439
:100F60000002892B09F47EC081E192E00E94DE013B
:100F7000F4CFB9016F5F7F4F7093FF016093FE0163
:100F8000FA01E20FF31F8083B6CF2091FE0130916A
:100F9000FF01121613060CF065C08091FC019091C0
:100FA000FD01A9014F5F5F4F5093FF014093FE0188
:100FB000FC01E20FF31F1082141615060CF052C04C
:100FC00061E371E00E94050B892B09F04BC0009191
:100FD00002014090030109A79090000130900101A7
:100FE0009AA661E082E00E94EF00CE0189960E94FD
:100FF0008D00862E772E682E592E6CE370E080E0EF
:1010000090E00E9461013F929F924F920F935F92F6
:101010006F927F928F921F9285EF8F931F921F93F3
:10102000BF92AF92FF92EF920E940E0BF7010190D8
:101030000020E9F73197AF014E195F09B70181E14F
:1010400092E00E94A5016CE370E080E090E00E94D5
:10105000610160E082E00E94EF000FB6F894DEBF0D
:101060000FBECDBF8091FC019091FD010E94770AD7
:101070000E94A70215CE5058BB27AA270E945308EA
:101080000C9432090E94240938F00E942B0920F0A8
:1010900039F49F3F19F426F40C9421090EF4E095DD
:1010A000E7FB0C941B09E92F0E94430958F3BA1778
:1010B000620773078407950720F079F4A6F50C946E
:1010C00065090EF4E0950B2EBA2FA02D0B01B90186
:1010D00090010C01CA01A0011124FF27591B99F0AE
:1010E000593F50F4503E68F11A16F040A22F232FBA
:1010F000342F4427585FF3CF469537952795A7950A
:10110000F0405395C9F77EF41F16BA0B620B730BB0
:10111000840BBAF09150A1F0FF0FBB1F661F771F21
:10112000881FC2F70EC0BA0F621F731F841F48F4D6
:10113000879577956795B795F7959E3F08F0B0CF5F
:101140009395880F08F09927EE0F97958795089546
:101150000E94AF086894B1110C94660908950E942A
:101160004B0988F09F5798F0B92F9927B751B0F0E5
:10117000E1F0660F771F881F991F1AF0BA95C9F71B
:1011800014C0B13091F00E946509B1E008950C944B
:101190006509672F782F8827B85F39F0B93FCCF3FE
:1011A000869577956795B395D9F73EF49095809598
:1011B000709561957F4F8F4F9F4F0895E89409C0B8
:1011C00097FB3EF490958095709561957F4F8F4F7A
:1011D0009F4F9923A9F0F92F96E9BB279395F69590
:1011E000879577956795B795F111F8CFFAF4BB0F0E
:1011F00011F460FF1BC06F5F7F4F8F4F9F4F16C072
:10120000882311F096E911C0772321F09EE8872FFB
:10121000762F05C0662371F096E8862F70E060E0B7
:101220002AF09A95660F771F881FDAF7880F969530
:10123000879597F9089597F99F6780E870E060E0D7
:1012400008959FEF80EC089500240A94161617065F
:1012500018060906089500240A94121613061406A7
:1012600005060895092E0394000C11F4882352F00A
:10127000BB0F40F4BF2B11F460FF04C06F5F7F4FC2
:101280008F4F9F4F089557FD9058440F551F59F0A9
:101290005F3F71F04795880F97FB991F61F09F3F63
:1012A00079F087950895121613061406551FF2CF8C
:1012B0004695F1DF08C0161617061806991FF1CFDC
:1012C00086957105610508940895E894BB27662703
:1012D0007727CB0197F908950E947F090C94320972
:1012E0000E94240938F00E942B0920F0952311F068
:1012F0000C941B090C94210911240C9466090E947A
:10130000430970F3959FC1F3950F50E0551F629FFD
:10131000F001729FBB27F00DB11D639FAA27F00D4E
:10132000B11DAA1F649F6627B00DA11D661F829F75
:101330002227B00DA11D621F739FB00DA11D621F5A
:10134000839FA00D611D221F749F3327A00D611D77
:10135000231F849F600D211D822F762F6A2F112459
:101360009F5750409AF0F1F088234AF0EE0FFF1F8C
:10137000BB1F661F771F881F91505040A9F79E3FE3
:10138000510580F00C941B090C9466095F3FE4F34F
:10139000983ED4F3869577956795B795F795E79539
:1013A0009F5FC1F7FE2B880F911D9695879597F942
:1013B0000895EE0FFF1F0590F491E02D09940F930F
:1013C0001F93CF93DF938230910510F482E090E079
:1013D000E091BC02F091BD0220E030E0A0E0B0E07E
:1013E000309719F1408151810281138148175907C3
:1013F000C8F08417950769F4109731F012960C9392
:10140000129713961C9327C00093BC021093BD0241
:1014100022C02115310519F04217530718F49A011B
:10142000BD01EF01DF01F801DBCF21153105F9F036
:10143000281B390B2430310580F48A819B8161158A
:10144000710521F0FB019383828304C09093BD0258
:101450008093BC02FE01329644C0FE01E20FF31FEE
:101460008193919322503109398328833AC0209186
:10147000BA023091BB02232B41F420910601309136
:1014800007013093BB022093BA02209104013091EE
:1014900005012115310541F42DB73EB740910801F2
:1014A00050910901241B350BE091BA02F091BB0267
:1014B000E217F307A0F42E1B3F0B2817390778F02B
:1014C000AC014E5F5F4F2417350748F04E0F5F1F8A
:1014D0005093BB024093BA028193919302C0E0E023
:1014E000F0E0CF01DF91CF911F910F910895CF933D
:1014F000DF93009709F481C0FC01329713821282B6
:10150000A091BC02B091BD02109781F4208131817D
:10151000820F931F2091BA023091BB02281739071E
:1015200051F5F093BB02E093BA0267C0ED0120E0F1
:1015300030E0CE17DF0740F44A815B819E01411500
:101540005105F1F0EA01F5CFD383C2834081518187
:10155000840F951FC817D90759F488819981840F82
:10156000951F0296918380838A819B8193838283D6
:101570002115310529F4F093BD02E093BC023DC072
:10158000E901FB83EA8349915991C40FD51FEC17F8
:10159000FD0761F480819181840F951F0296E90116
:1015A00099838883828193819B838A83E0E0F0E042
:1015B00012968D919C911397009719F0FD01DC0113
:1015C000F7CF8D919C9111979D012E5F3F4F820F18
:1015D000931F2091BA023091BB022817390769F492
:1015E000309729F41092BD021092BC0202C01382FF
:1015F0001282B093BB02A093BA02DF91CF910895FB
:1016000081E090E0F8940C942C11FB01DC018D91A9
:10161000019080190110D9F3990B0895AEE0B0E064
:10162000E4E1FBE00C9403110D891E8986E08C83B4
:101630001A8309838FEF9FE79E838D83AE01475EF8
:101640005F4F6F89788DCE0101960E94490BEF8123
:10165000F885E00FF11F10822E96E4E00C941F1124
:10166000AEE0B0E0E6E3FBE00C94051185E08C838E
:101670008B899C899A838983AE01495E5F4F6D890E
:101680007E89CE0101960E94C60E2E96E2E00C9451
:101690002111ABE0B0E0EFE4FBE00C94F5106C013D
:1016A0007B018A01FC0117821682838181FFCCC1F4
:1016B000CE0101963C01F6019381F70193FD8591DE
:1016C00093FF81917F01882309F4BAC1853239F4EF
:1016D00093FD859193FF81917F01853229F4B601B5
:1016E00090E00E943F10E7CF912C212C312CFFE19C
:1016F000F315D8F08B3279F038F4803279F08332F8
:10170000A1F4232D20611DC08D3261F0803369F476
:10171000232D216016C0832D8260382EE32DE460D6
:101720003E2E2AC0F32DF8601DC037FC2DC020EDE1
:10173000280F2A3040F08E32B9F436FC81C1232DB7
:101740002064322E19C036FE06C08AE0989E200D15
:101750001124922E11C0EAE02E9E200D1124222E7B
:10176000F32DF0623F2E08C08C3621F4832D806863
:10177000382E02C0883641F4F70193FD859193FF1E
:1017800081917F018111B3CF982F9F7D9554933024
:1017900028F40C5F1F4F9FE399830DC0833631F00F
:1017A000833771F0833509F059C021C0F801808179
:1017B00089830E5F1F4F88248394912C530113C09B
:1017C0002801F2E04F0E511CF801A080B18036FED6
:1017D00003C0692D70E002C06FEF7FEFC5010E946A
:1017E000F60F4C018201F32DFF773F2E16C0280122
:1017F00022E0420E511CF801A080B18036FE03C0E9
:10180000692D70E002C06FEF7FEFC5010E94EB0F02
:101810004C01F32DF0683F2E820133FC1BC0822D5A
:1018200090E088169906B0F4B60180E290E00E943C
:101830003F102A94F4CFF50137FC859137FE819152
:101840005F01B60190E00E943F1021102A9421E030
:10185000821A91088114910471F7E8C0843611F05E
:10186000893641F5F80137FE07C0608171818281B8
:1018700093810C5F1F4F08C060817181072E000C9F
:10188000880B990B0E5F1F4FF32DFF763F2E97FFAE
:1018900009C090958095709561957F4F8F4F9F4FB0
:1018A000F0683F2E2AE030E0A3010E949410882EB9
:1018B000861845C0853731F4232D2F7EB22E2AE0BD
:1018C00030E025C0932D997FB92E8F36C1F018F4E2
:1018D000883579F0B5C0803719F0883721F0B0C06D
:1018E000E92FE061BE2EB4FE0DC0FB2DF460BF2ECB
:1018F00009C034FE0AC0292F2660B22E06C028E097
:1019000030E005C020E130E002C020E132E0F80123
:10191000B7FE07C060817181828193810C5F1F4F88
:1019200006C06081718180E090E00E5F1F4FA301CF
:101930000E949410882E8618FB2DFF773F2E36FECE
:101940000DC0232D2E7FA22E891458F434FE0BC017
:1019500032FC09C0832D8E7EA82E05C0B82CA32C86
:1019600003C0B82C01C0B92CA4FE0FC0FE01E80DC5
:10197000F11D8081803321F49A2D997EA92E09C012
:10198000A2FE06C0B394B39404C08A2D867809F0F1
:10199000B394A3FC11C0A0FE06C0B21488F4280CB6
:1019A000922C9B180EC0B21460F4B60180E290E055
:1019B0000E943F10B394F7CFB21418F42B1802C052
:1019C000982C212CA4FE10C0B60180E390E00E9468
:1019D0003F10A2FE17C0A1FC03C088E790E002C040
:1019E00088E590E0B6010CC08A2D867859F0A1FEFA
:1019F00002C08BE201C080E2A7FC8DE2B60190E05C
:101A00000E943F10891438F4B60180E390E00E94F0
:101A10003F109A94F7CF8A94F301E80DF11D80816D
:101A2000B60190E00E943F108110F5CF222009F40A
:101A300042CEB60180E290E00E943F102A94F6CF99
:101A4000F6018681978102C08FEF9FEF2B96E2E12E
:101A50000C94111120FD09C0FC0123FD05C022FFDB
:101A600002C07383628351834083089544FD17C08D
:101A700046FD17C0AB01BC01DA01FB01AA0FBB1F79
:101A8000EE1FFF1F1094D1F74A0F5B1F6E1F7F1FC1
:101A9000CB01BA01660F771F881F991F09C033E079
:101AA00001C034E0660F771F881F991F3150D1F7AE
:101AB000620F711D811D911D08950F931F93CF9388
:101AC000DF938C01C8010E940110EC0197FD08C052
:101AD0000E94D70F892BB1F7B801CE010E947B106D
:101AE000CE01DF91CF911F910F9108958F929F9218
:101AF000AF92BF92EF92FF920F931F93CF93DF931A
:101B00008C01D62F7A01B22E0E9401109C0133273E
:101B10002B32310531F02D32310561F48B2D806887
:101B2000B82ED15011F480E068C0C8010E940110A5
:101B300097FDF9CFCB2DCD7F2B2D207309F5803369
:101B4000F9F4AA24AA94AD0E09F443C0C8010E9476
:101B5000011097FD3EC09C012F7D332728353105AC
:101B600049F4C264D250A9F1C8010E94011097FF44
:101B700007C02FC0B6FE02C0C26001C0C261DA2D2C
:101B8000812C912C540120ED280F283080F0C4FFC7
:101B900004C0B8010E947B1019C02A3040F0C6FF73
:101BA000F8CF2F7D3FEE320F363098F727504C2F6D
:101BB000C501B4010E94360D4B015C01C260D150D9
:101BC00059F0C8010E94011097FFDDCFC1FD04C08C
:101BD000AACF812C912C5401C7FF08C0B094A094C7
:101BE00090948094811C911CA11CB11C2C2FB501D8
:101BF000A401C7010E942A0D81E0DF91CF911F91BE
:101C00000F91FF90EF90BF90AF909F908F900895AD
:101C1000A0E2B0E0EEE0FEE00C94F8105C01962E3D
:101C20007A01F9018E010F5F1F4F680180E2D80130
:101C30001D928A95E9F7D50113968C9080E090E08B
:101C4000612C712C30E061E070E083FC259183FE13
:101C500021918F01522E211103C080E090E092C0AB
:101C60002E3511F4009751F1432F50E048175907D2
:101C70003CF42D3559F12D3219F4772009F103C0C8
:101C8000772009F46AC0452D469546954695D601BC
:101C9000A40FB11D452D47708B0102C0000F111F0D
:101CA0004A95E2F7A8015C91452B4C93651459F0D5
:101CB000561410F45394E7CF5A94E5CF31E004C0A2
:101CC0007724739401C0712C0196BFCF772019F04F
:101CD0008E8180628E83311103C08824839417C063
:101CE000F6019E012F5D3F4F8081809581932E17D5
:101CF0003F07D1F7F2CFE114F10429F0D7018C931B
:101D0000F70131967F019A94812C9920F9F0C50151
:101D10000E94011097FD18C0FC01FF2723E0F595F4
:101D2000E7952A95E1F7EC0DFD1D208130E0AC012F
:101D30004770552702C0359527954A95E2F720FD53
:101D4000DACFB5010E947B10811087CFE114F10436
:101D500011F0D7011C92C80115C0422F4695469537
:101D60004695D601A40FB11D422F47708B0102C0CA
:101D7000000F111F4A95E2F7A8015C91452B4C9387
:101D8000622EA2CFA096EFE00C941411A0E0B0E078
:101D9000ECECFEE00C94F8106C01EB015A01FC0134
:101DA00017821682512CF601E380FE01E3FC859137
:101DB000E3FE8191182FEF01882309F4EEC090E033
:101DC0000E94D70F892B21F0C6010E945D0DEBCF39
:101DD000153241F4FE01E3FC1591E3FE1191EF0190
:101DE000153281F4C6010E94011097FDD4C0412F25
:101DF00050E09C01332724173507A9F2B6010E9451
:101E00007B10CBC01A3239F4E3FC1591E3FE11913B
:101E1000EF0101E001C000E0F12C20ED210F2A309C
:101E200080F402606F2D70E080E090E040E20E945C
:101E3000360DF62EFE01E3FC1591E3FE1191EF0144
:101E4000ECCF01FF03C0F11003C0A7C0FF24FA9438
:101E5000183619F01C3651F010C0FE01E3FC159144
:101E6000E3FE1191EF01183641F408600460FE01B1
:101E7000E3FC1591E3FE1191EF01112309F48DC0EC
:101E8000612F70E088E690E00E94E00F892B09F452
:101E900084C000FD07C0F50180809180C5010296D5
:101EA0005C0102C0812C912C1E3651F4F601468152
:101EB000578160E070E0202FC4010E942A0D73CF8B
:101EC0001336A9F401FD02C0FF24F394C6010E9459
:101ED000011097FD60C08114910429F0F401808302
:101EE000C40101964C01FA94F110F0CF50C01B359B
:101EF00059F49E01A4016F2DC6010E94080EEC0149
:101F0000892B09F044C03EC0C6010E945D0D97FDBB
:101F100042C01F3661F128F4143639F1193651F1F7
:101F200028C0133771F0153701F123C081149104D3
:101F300029F0F4016082C40101964C01FA94FF205B
:101F400071F0C6010E9401103C0197FD08C00E947B
:101F5000D70F892B59F3B601C3010E947B1081145E
:101F60009104A9F0F401108212C0006203C0006164
:101F700001C00064202FA4016F2DC6010E94760DC0
:101F8000811105C0F6018381807329F406C000FD2C
:101F90000ACF539408CF552019F0852D90E002C048
:101FA0008FEF9FEFCDB7DEB7EFE00C9414119111D6
:101FB0000C94F210803219F089508550C8F70895BA
:101FC000FC010590061621F00020D9F7C001089504
:101FD0003197CF010895FC010590615070400110C8
:101FE000D8F7809590958E0F9F1F0895FC01615042
:101FF000704001900110D8F7809590958E0F9F1F2B
:102000000895CF93DF93EC012B8120FF33C026FF8F
:102010000AC02F7B2B838E819F8101969F838E83A5
:102020008A8190E029C022FF0FC0E881F981808178
:10203000082E000C990B009719F420622B831AC00C
:102040003196F983E8830EC0EA85FB85099597FFF1
:1020500009C02B81019611F080E201C080E1822B42
:102060008B8308C02E813F812F5F3F4F3F832E839C
:10207000992702C08FEF9FEFDF91CF9108950F93C3
:102080001F93CF93DF93FB01238121FD03C08FEFCB
:102090009FEF2CC022FF16C04681578124813581D5
:1020A0004217530744F4A081B1819D012F5F3F4F38
:1020B000318320838C93268137812F5F3F4F378375
:1020C000268314C08B01EC01FB010084F185E02D17
:1020D0000995892BE1F6D80116968D919C91179759
:1020E000019617969C938E931697CE01DF91CF9110
:1020F0001F910F910895FB01238120FF12C026FD3F
:1021000010C08F3F3FEF930761F082832F7D2064E3
:1021100023832681378121503109378326839927EC
:1021200008958FEF9FEF0895FA01AA27283051F103
:10213000203181F1E8946F936E7F6E5F7F4F8F4FF8
:102140009F4FAF4FB1E03ED0B4E03CD0670F781F57
:10215000891F9A1FA11D680F791F8A1F911DA11D3C
:102160006A0F711D811D911DA11D20D009F4689475
:102170003F912AE0269F11243019305D3193DEF61D
:10218000CF010895462F4770405D4193B3E00FD0D3
:10219000C9F7F6CF462F4F70405D4A3318F0495DBE
:1021A00031FD4052419302D0A9F7EACFB4E0A695A1
:1021B0009795879577956795BA95C9F700976105C3
:1021C000710508959B01AC010A2E06945795479519
:1021D00037952795BA95C9F7620F731F841F951F0E
:1021E000A01D08959927882708952F923F924F9216
:1021F0005F926F927F928F929F92AF92BF92CF9297
:10220000DF92EF92FF920F931F93CF93DF93CDB79F
:10221000DEB7CA1BDB0B0FB6F894DEBF0FBECDBF17
:1022200009942A88398848885F846E847D848C84E8
:102230009B84AA84B984C884DF80EE80FD800C81F1
:102240001B81AA81B981CE0FD11D0FB6F894DEBFD4
:0C2250000FBECDBFED010895F894FFCF44
:10225C0010000C000000BE028000000000003802DC
:10226C00A501CF0185020002DE01F2010000000091
:10227C00340307036403E3029B01F302E4022564C5
:10228C0000476976650025643B25643A256C782106
:08229C0025642C25642A0000D2
:107E0000112484B714BE81FFF0D085E080938100F7
:107E100082E08093C00088E18093C10086E0809377
:107E2000C20080E18093C4008EE0C9D0259A86E02C
:107E300020E33CEF91E0309385002093840096BBD3
:107E4000B09BFECF1D9AA8958150A9F7CC24DD24C4
:107E500088248394B5E0AB2EA1E19A2EF3E0BF2EE7
:107E6000A2D0813461F49FD0082FAFD0023811F036
:107E7000013811F484E001C083E08DD089C08234E0
:107E800011F484E103C0853419F485E0A6D080C0E4
:107E9000853579F488D0E82EFF2485D0082F10E0AE
:107EA000102F00270E291F29000F111F8ED06801E7
:107EB0006FC0863521F484E090D080E0DECF843638
:107EC00009F040C070D06FD0082F6DD080E0C81688
:107ED00080E7D80618F4F601B7BEE895C0E0D1E017
:107EE00062D089930C17E1F7F0E0CF16F0E7DF06D8
:107EF00018F0F601B7BEE89568D007B600FCFDCFD4
:107F0000A601A0E0B1E02C9130E011968C91119780
:107F100090E0982F8827822B932B1296FA010C0160
:107F200087BEE89511244E5F5F4FF1E0A038BF0790
:107F300051F7F601A7BEE89507B600FCFDCF97BE46
:107F4000E89526C08437B1F42ED02DD0F82E2BD052
:107F50003CD0F601EF2C8F010F5F1F4F84911BD097
:107F6000EA94F801C1F70894C11CD11CFA94CF0C13
:107F7000D11C0EC0853739F428D08EE10CD085E9AC
:107F80000AD08FE07ACF813511F488E018D01DD067
:107F900080E101D065CF982F8091C00085FFFCCF94
:107FA0009093C60008958091C00087FFFCCF809118
:107FB000C00084FD01C0A8958091C6000895E0E648
:107FC000F0E098E1908380830895EDDF803219F02E
:107FD00088E0F5DFFFCF84E1DECF1F93182FE3DFCA
:107FE0001150E9F7F2DF1F91089580E0E8DFEE27F6
:047FF000FF270994CA
:027FFE00040479
:0400000300007E007B
:00000001FF
