:1000000007C1000033C1000031C100002FC1000052
:100010002DC100002BC1000029C1000027C1000034
:1000200025C1000023C1000021C100001FC1000044
:100030001DC100001BC1000019C1000017C1000054
:1000400015C1000013C1000011C100000FC1000064
:100050000DC100000BC1000009C1000038C3000041
:1000600005C1000006C40000DBC30000FFC00000A3
:10007000FDC00000FBC00000F9C00000F7C0000098
:10008000F5C00000F3C00000F1C00000EFC00000A8
:1000900091C3000066C3000022C40000E7C0000056
:1000A000E5C00000E3C00000E1C00000DFC00000C8
:1000B000DDC00000DBC00000D9C00000D7C00000D8
:1000C000D5C00000D3C00000D1C00000CFC00000E8
:1000D000CDC00000CBC00000C9C00000C7C00000F8
:1000E000C5C0000090059305820586058A05CA05EE
:1000F00097059B05A105A505A905AF05B305B7059E
:10010000CA05BD05C105C505000021002400270062
:100110002A002D0030003300010100000401070116
:100120000A0100002200250028002B002E003100CB
:10013000340002010000050108010B010505050559
:10014000070508080808020202020A0A080804044F
:10015000040401010101010101010303030303037D
:100160000303040707070C0C0C0C0C0C0C0C02020C
:10017000020206060606060606060B0B0B0B0B0B09
:100180000B0B010210202008081020401020408096
:10019000020102010804020101020408102040804B
:1001A00080402010080402018004020180402010D9
:1001B0000804020108040201010204081020408022
:1001C000010204081020408000000A0B02090C0DF7
:1001D0000E080703040100000000000000000000FA
:1001E000000000000000000000000000000000000F
:1001F00000000000121110000000000000000000CC
:1002000000000000000000000000000000007A0470
:1002100011241FBECFEFD1E2DEBFCDBF00E00CBF87
:1002200023E0AAE1B2E001C01D92A336B207E1F7D4
:1002300012E0A0E0B2E0EEE2F1E100E00BBF02C0AC
:1002400007900D92AA31B107D9F711E0C8E0D1E0CB
:1002500000E005C021970109802FFE0149D5C73074
:10026000D10780E00807B1F798D35FC7C9CEFC017A
:10027000A089B18982E08C93A485B5851C92A6855E
:10028000B7858FEC8C93108EA489B58986E08C930A
:10029000A289B3898C9180618C93A289B3898C9156
:1002A00088608C93A289B3898C9180688C93028832
:1002B000F389E02D80818F7D808308953FB7F89486
:1002C00080911D0290911E02A0911F02B091200208
:1002D00026B5A89B05C02F3F19F00196A11DB11DA1
:1002E0003FBFBA2FA92F982F8827820F911DA11DDC
:1002F000B11DBC01CD0142E0660F771F881F991F19
:100300004A95D1F708958F929F92AF92BF92CF9264
:10031000DF92EF92FF926B017C01D0DF4B015C0119
:10032000C114D104E104F104E9F0C8DFDC01CB0120
:1003300088199909AA09BB09883E9340A105B1050E
:1003400078F321E0C21AD108E108F10888EE880E9E
:1003500083E0981EA11CB11CC114D104E104F10476
:1003600021F7DECFFF90EF90DF90CF90BF90AF905E
:100370009F908F900895CF92DF92EF92FF920F930C
:100380001F93CF93DF936C017A018B01C0E0D0E023
:10039000CE15DF0581F0D8016D918D01D601ED916B
:1003A000FC910190F081E02DC6011995892B11F087
:1003B0002196EECF7E01C701DF91CF911F910F9162
:1003C000FF90EF90DF90CF900895089580E090E047
:1003D0000895FC01538D448D252F30E0842F90E04B
:1003E000821B930B541710F0CF9608950197089530
:1003F000FC01918D828D981761F0828DDF01A80F2D
:10040000B11D5D968C91928D9F5F9F73928F90E04E
:1004100008958FEF9FEF08952FB7F89480912102F0
:1004200090912202A0912302B09124022FBF8093C9
:100430002D0290932E02A0932F02B093300285E2FA
:1004400092E0D6DF97FF26C02FB7F8948091210263
:1004500090912202A0912302B09124022FBF4091DB
:100460002D0250912E0260912F0270913002841B58
:10047000950BA60BB70B4091290250912A0260916F
:100480002B0270912C0284179507A607B707B8F2C4
:100490008FEF9FEF0895FC01918D828D981731F0B9
:1004A000828DE80FF11D858D90E008958FEF9FEF0D
:1004B0000895FC01918D228D892F90E0805C9F4FE3
:1004C000821B91098F739927089585E292E0F1DFED
:1004D00021E0892B09F420E0822F089582EC92E03C
:1004E000E8DF21E0892B09F420E0822F0895FC0148
:1004F000848DDF01A80FB11DA35ABF4F2C91848DAD
:1005000090E001968F739927848FA689B7892C93E1
:10051000A089B1898C91837080648C93938D848D34
:10052000981306C00288F389E02D80818F7D808337
:100530000895EF92FF920F931F93CF93DF93EC01F7
:1005400081E0888F9B8D8C8D981305C0E889F9898F
:10055000808185FD25C0F62E0B8D10E00F5F1F4FAB
:100560000F731127E02E8C8DE8120BC00FB607FC1D
:10057000FACFE889F989808185FFF5CFCE01B7DF11
:10058000F2CF8B8DFE01E80FF11DE35AFF4FF08291
:100590009FB7F8940B8FEA89FB89808180620AC03B
:1005A0009FB7F894EE89FF896083E889F989808193
:1005B0008370806480839FBF81E090E0DF91CF9162
:1005C0001F910F91FF90EF900895CF93DF93EC016F
:1005D000888D8823C1F0EA89FB89808185FD05C06B
:1005E000A889B9898C9186FD0EC00FB607FCF5CF9E
:1005F000808185FFF2CFA889B9898C9185FFEDCFE5
:10060000CE0175DFE8CFDF91CF91089580E090E0D3
:10061000892B19F063DF811120C080E090E0892BE5
:1006200019F053DF81111CC080E090E0892B41F06C
:1006300080E090E0892B21F00E940000811113C01E
:1006400080E090E0892BA1F080E090E0892B81F0A0
:100650000E94000081110AC008950E940000DDCFB1
:100660000E940000E1CF0E940000EACF0C9400003D
:1006700008958BB1599A61E070E080E090E043CE3C
:1006800040D50F931F93CF93DF93EC01888199811D
:10069000009729F02A813B812617370780F48B01C8
:1006A0006F5F7F4F4ED4009761F0998388831B83DF
:1006B0000A832C813D81232B11F4FC01108281E0FF
:1006C00001C080E0DF91CF911F910F9108951F929B
:1006D0000F920FB60F9211242F933F938F939F93F6
:1006E000AF93BF938091210290912202A0912302A7
:1006F000B091240230911C0223E0230F2D3720F407
:100700000196A11DB11D05C026E8230F0296A11D6B
:10071000B11D20931C028093210290932202A0938A
:100720002302B093240280911D0290911E02A09199
:100730001F02B09120020196A11DB11D80931D02E0
:1007400090931E02A0931F02B0932002BF91AF911D
:100750009F918F913F912F910F900FBE0F901F90FF
:1007600018951F920F920FB60F9211240BB60F928D
:100770002F933F934F935F936F937F938F939F93A9
:10078000AF93BF93EF93FF9385E292E0B0DEFF91CA
:10079000EF91BF91AF919F918F917F916F915F91F9
:1007A0004F913F912F910F900BBE0F900FBE0F9066
:1007B0001F9018951F920F920FB60F9211240BB62F
:1007C0000F922F938F939F93EF93FF93E0913502B6
:1007D000F09136028081E0913B02F0913C0282FD73
:1007E00012C0908180913E028F5F8F7320913F02F3
:1007F000821751F0E0913E02F0E0EB5DFD4F958FE6
:1008000080933E0201C08081FF91EF919F918F9173
:100810002F910F900BBE0F900FBE0F901F90189549
:100820001F920F920FB60F9211240BB60F922F93B7
:100830003F934F935F936F937F938F939F93AF9368
:10084000BF93EF93FF9382EC92E051DEFF91EF9123
:10085000BF91AF919F918F917F916F915F914F91D8
:100860003F912F910F900BBE0F900FBE0F901F90D6
:1008700018951F920F920FB60F9211240BB60F927C
:100880002F938F939F93EF93FF93E091D202F09178
:10089000D3028081E091D802F091D90282FD12C08A
:1008A00090818091DB028F5F8F732091DC02821731
:1008B00051F0E091DB02F0E0EE53FD4F958F809315
:1008C000DB0201C08081FF91EF919F918F912F9169
:1008D0000F900BBE0F900FBE0F901F9018951F9298
:1008E0000F920FB60F92112459980F900FBE0F90D0
:1008F0001F901895E5E2F2E01382128248EE53E071
:1009000060E070E044835583668377838BE092E0F8
:10091000918380832DEC30E0358724872CEC30E008
:100920003787268728EC30E0318B208B29EC30E0AC
:10093000338B228B2AEC30E0358B248B2EEC30E08D
:10094000378B268B118E128E138E148EE2ECF2E012
:1009500013821282448355836683778391838083D5
:1009600085EC90E09587848784EC90E09787868774
:1009700080EC90E0918B808B81EC90E0938B828B6C
:1009800082EC90E0958B848B86EC90E0978B868B45
:10099000118E128E138E148E0895CF93DF93CDB7E0
:1009A000DEB728970FB6F894DEBF0FBECDBF7894A0
:1009B00084B5826084BD84B5816084BD85B5826064
:1009C00085BD85B5816085BD80916E008160809315
:1009D0006E0010928100809181008260809381007E
:1009E000809181008160809381008091800081608E
:1009F000809380008091B10084608093B1008091E9
:100A0000B00081608093B0008091910082608093FB
:100A1000910080919100816080939100809190007D
:100A20008160809390008091A10082608093A100FA
:100A30008091A10081608093A1008091A0008160DD
:100A40008093A00080912101826080932101809198
:100A50002101816080932101809120018160809338
:100A6000200180917A00846080937A0080917A00DE
:100A7000826080937A0080917A00816080937A000E
:100A800080917A00806880937A001092C10068EEAD
:100A900073E080E090E037DC4FE851E0FA016491C8
:100AA00029E431E0F9018491882399F090E0880FDE
:100AB000991FFC01E85FFE4FA591B491FC01EE5D2A
:100AC000FE4F859194919FB7F8948C91862B8C93CF
:100AD0009FBFE5EDF1E08491FA014491F901249181
:100AE000222309F465C0882309F454C090E0FC0176
:100AF0003197E231F10508F04DC08827EE58FF4FDD
:100B00008F4FF6C0809180008F7707C08091800062
:100B10008F7D03C080918000877F809380003AC0E2
:100B200084B58F7702C084B58F7D84BD33C080913A
:100B3000B0008F7703C08091B0008F7D8093B000AC
:100B400029C0809190008F7707C0809190008F7DA1
:100B500003C080919000877F809390001BC080919C
:100B6000A0008F7707C08091A0008F7D03C0809187
:100B7000A000877F8093A0000DC0809120018F7717
:100B800007C0809120018F7D03C080912001877F65
:100B900080932001E22FF0E0EE0FFF1FEE5DFE4F8D
:100BA000A591B4919FB7F8948C91482B4C939FBF1B
:100BB000519A599882EC92E05ADB85E292E057DB39
:100BC0008091C90084648093C900FF24F39482EC6F
:100BD00092E06FDC892B09F43CC082EC92E008DCE7
:100BE000182F80910002882379F043DD8091C9009D
:100BF00081608093C900612F85E292E09ADC1092B7
:100C00000002F0921B0225C080911B028823A9F0EC
:100C100010931A0210921B022CDD8091C9008E7F66
:100C20008093C900612F85E292E083DC80911A02F3
:100C3000813B79F4F09200020CC0F092000219DDC1
:100C40008091C9008E7F8093C900612F85E292E078
:100C500070DC85E292E02DDC892B09F447C01A8212
:100C600019821C821B821E821D8260E070E0CE0110
:100C7000019607DD29813A8181110CC021153105CA
:100C800011F0C901D5D01A8219821E821D821C82E0
:100C90001B8206C01E821D8269E172E0C9013ED23C
:100CA000BBDB97FD19C08F8318860D811E810F5FF6
:100CB0001F4FB801CE010196E4DC882389F3298116
:100CC0003A818D819E81BE01695F7F4F820F931FA4
:100CD00025D21E830D83E4CF4D815E8169817A81A7
:100CE00082EC92E048DB89819A81A2D08FDC6FCFC1
:100CF000EE0FFF1F881F8BBF0790F691E02D199410
:100D00000F931F93CF93DF938230910510F482E00D
:100D100090E0E0916103F091620320E030E0A0E018
:100D2000B0E0309719F14081518102811381481759
:100D30005907C8F08417950769F4109731F0129697
:100D40000C93129713961C9327C000936103109382
:100D5000620322C02115310519F04217530718F418
:100D60009A01BD01EF01DF01F801DBCF211531054B
:100D7000F9F0281B390B2430310580F48A819B81DE
:100D80006115710521F0FB019383828304C0909368
:100D9000620380936103FE01329644C0FE01E20FBC
:100DA000F31F8193919322503109398328833AC0EC
:100DB00020915F0330916003232B41F420910302C3
:100DC000309104023093600320935F03209101026D
:100DD000309102022115310541F42DB73EB7409103
:100DE000050250910602241B350BE0915F03F09140
:100DF0006003E217F307A0F42E1B3F0B28173907F7
:100E000078F0AC014E5F5F4F2417350748F04E0F66
:100E10005F1F5093600340935F038193919302C0DF
:100E2000E0E0F0E0CF01DF91CF911F910F910895A5
:100E3000CF93DF93009709F481C0FC0132971382AE
:100E40001282A0916103B0916203109781F4208116
:100E50003181820F931F20915F0330916003281727
:100E6000390751F5F0936003E0935F0367C0ED012C
:100E700020E030E0CE17DF0740F44A815B819E011D
:100E800041155105F1F0EA01F5CFD383C2834081CA
:100E90005181840F951FC817D90759F4888199810A
:100EA000840F951F0296918380838A819B8193830F
:100EB00082832115310529F4F0936203E0936103E5
:100EC0003DC0E901FB83EA8349915991C40FD51FC5
:100ED000EC17FD0761F480819181840F951F0296C4
:100EE000E90199838883828193819B838A83E0E0EF
:100EF000F0E012968D919C911397009719F0FD01E7
:100F0000DC01F7CF8D919C9111979D012E5F3F4F92
:100F1000820F931F20915F033091600328173907D8
:100F200069F4309729F4109262031092610302C0B1
:100F300013821282B0936003A0935F03DF91CF917D
:100F400008956F927F928F929F92AF92BF92CF92AD
:100F5000DF92EF92FF920F931F93CF93DF9300974F
:100F600081F4CB01DF91CF911F910F91FF90EF9012
:100F7000DF90CF90BF90AF909F908F907F906F90B9
:100F8000BFCEFC01E60FF71F9C0122503109E2178A
:100F9000F30708F4A5C0EC01D9010D911C9111973C
:100FA00006171707A8F00530110508F497C0C80107
:100FB00004978617970708F491C002501109061B81
:100FC000170B019311936D937C93CF0131DF86C092
:100FD0005B01A01AB10A4C01800E911EA091610321
:100FE000B0916203612C712CE12CF12C109709F463
:100FF00046C08D919C911197A815B905B1F56C016A
:1010000042E0C40ED11CCA14DB0478F14C018A18EA
:101010009B08640142E0C40ED11C1296BC9012974A
:101020001396AC91B5E0CB16D10440F0B282A38305
:1010300091828082D9016D937C9309C00E5F1F4F0E
:10104000800F911FF90191838083EB2DFA2FE1141A
:10105000F10431F0D7011396FC93EE9312973EC042
:10106000F0936203E093610339C06816790608F4CF
:101070003C017D0112960D90BC91A02DB7CF8091BF
:101080005F039091600388169906E1F4661677066F
:10109000C8F48091010290910202009741F48DB74B
:1010A0009EB74091050250910602841B950BE817EC
:1010B000F907B0F4F0936003E0935F03F9017183E3
:1010C00060830CC0CB011CDE7C01009749F0A801B5
:1010D000BE011BD0CE01ACDEC70104C0CE0102C0F0
:1010E00080E090E0DF91CF911F910F91FF90EF9002
:1010F000DF90CF90BF90AF909F908F907F906F9038
:10110000089581E090E0F89410C0FB01DC0102C07A
:1011100001900D9241505040D8F70895FB01DC0139
:0E11200001900D920020E1F70895F894FFCFA2
:10112E0001000063038000000000009902BB01E98A
:0A113E0001E5025902F8014B02001E
:00000001FF
