:1000000002C100002EC100002CC100002AC1000066
:1000100028C1000026C1000024C1000022C1000048
:1000200020C100001EC100001CC100001AC1000058
:1000300018C1000016C1000014C1000012C1000068
:1000400010C100000EC100000CC100000AC1000078
:1000500008C1000006C1000004C10000D3C30000B5
:1000600000C1000099C300006EC30000FAC0000088
:10007000F8C00000F6C00000F4C00000F2C00000AC
:10008000F0C00000EEC00000ECC00000EAC00000BC
:10009000E8C00000E6C00000E4C00000E2C00000CC
:1000A000E0C00000DEC00000DCC00000DAC00000DC
:1000B000D8C00000D6C00000D4C00000D2C00000EC
:1000C000D0C00000CEC00000CCC00000CAC00000FC
:1000D000C8C00000C6C00000C4C00000C2C000000C
:1000E000C0C0000000002100240027002A002D00CD
:1000F0003000330001010000040107010A01000083
:100100002200250028002B002E00310034000201BF
:100110000000050108010B0100002000230026005B
:1001200029002C002F00320000010000030106010D
:10013000090105050505070508080808020202026D
:100140000A0A080804040404010101010101010173
:100150000303030303030303040707070C0C0C0C3E
:100160000C0C0C0C02020202060606060606060627
:100170000B0B0B0B0B0B0B0B0102102020080810B4
:100180002040102040800201020108040201010207
:1001900004081020408080402010080402018004E0
:1001A000020180402010080402010804020101023B
:1001B0000408102040800102040810204080000044
:1001C0000A0B02090C0D0E080703040100000000D1
:1001D000000000000000000000000000000000001F
:1001E00000000000000000000000121110000000DC
:1001F00000000000000000000000000000000000FF
:1002000000000000820511241FBECFEFD1E2DEBF47
:10021000CDBF00E00CBF12E0A0E0B2E0E2E7FBE0FF
:1002200000E00BBF02C007900D92A233B107D9F7CF
:1002300022E0A2E3B2E001C01D92A83DB207E1F7BF
:1002400011E0C3E0D1E000E005C021970109802F53
:10025000FE0185D4C230D10780E00807B1F71CD376
:1002600086C4CECEAF92BF92CF92DF92EF92FF9232
:100270000F931F93CF93DF936C017B018B01040FCE
:10028000151FEB015E01AE18BF08C017D10759F06A
:100290006991D601ED91FC910190F081E02DC601AC
:1002A0001995892B79F7C501DF91CF911F910F9196
:1002B000FF90EF90DF90CF90BF90AF900895FC013A
:1002C000538D448D252F30E0842F90E0821B930BBB
:1002D000541710F0CF96089501970895FC01918D61
:1002E000828D981761F0A28DAE0FBF2FB11D5D9664
:1002F0008C91928D9F5F9F73928F90E008958FEF06
:100300009FEF0895FC01918D828D981731F0828DB9
:10031000E80FF11D858D90E008958FEF9FEF089510
:10032000FC01918D228D892F90E0805C9F4F821B74
:1003300091098F73992708958BE392E0F1DF21E013
:10034000892B09F420E0822F0895FC01A48DA80FC9
:10035000B92FB11DA35ABF4F2C91848D90E0019607
:100360008F739927848FA689B7892C93A089B18927
:100370008C91837080648C93938D848D981306C0C8
:100380000288F389E02D80818F7D80830895EF922C
:10039000FF920F931F93CF93DF93EC0181E0888F3F
:1003A0009B8D8C8D98131AC0E889F989808185FF0F
:1003B00015C09FB7F894EE89FF896083E889F989B1
:1003C00080818370806480839FBF81E090E0DF91B3
:1003D000CF911F910F91FF90EF900895F62E0B8D06
:1003E00010E00F5F1F4F0F731127E02E8C8D8E11C1
:1003F0000BC00FB607FCFACFE889F989808185FF29
:10040000F5CFCE01A2DFF2CFEB8DEC0FFD2FF11D6A
:10041000E35AFF4FF0829FB7F8940B8FEA89FB896C
:1004200080818062D0CFCF93DF93EC01888D8823C9
:10043000B1F0AA89BB89E889F9898C9185FD03C04F
:10044000808186FD0CC00FB607FCF7CF8C9185FF2D
:10045000F2CF808185FFEDCFCE0177DFEACFDF914C
:10046000CF91089580E090E0892B21F065DF811124
:100470000E94000080E090E0892B49F080E090E04D
:10048000892B29F00E94000081110E94000080E069
:1004900090E0892B49F080E090E0892B29F00E94C0
:1004A000000081110E94000080E090E0892B49F05B
:1004B00080E090E0892B29F00E94000081110C94CB
:1004C000000008958150823108F059C0E82FF0E013
:1004D0008827E359FD4F8F4F42C38D0291027F025F
:1004E00085028902BF0294029A029E02A402A80217
:1004F000AC02B202B602BF02BA02C002C4028091CC
:1005000080008F77809380000895809180008F7D98
:10051000F9CF80918000877FF5CF84B58F7784BD38
:10052000089584B58F7DFBCF8091B0008F77809345
:10053000B00008958091B0008F7DF9CF8091900038
:100540008F77809390000895809190008F7DF9CFF0
:1005500080919000877FF5CF8091A0008F77809366
:10056000A00008958091A0008F7DF9CF8091A00018
:10057000877FF5CF809120018F77809320010895A8
:10058000809120018F7DF9CF80912001877FF5CF69
:10059000CF93DF93282F30E0F901E254FE4F84918E
:1005A000F901E858FE4FD491F901EE5CFE4FC49179
:1005B000CC2399F0811186DFEC2FF0E0EE0FFF1FC6
:1005C000E85EFE4FA591B491EC91ED2381E090E0BF
:1005D00009F480E0DF91CF91089580E090E0FACFB8
:1005E0001F93CF93DF93282F30E0F901E254FE4FA1
:1005F0008491F901E858FE4FD491F901EE5CFE4F69
:10060000C491CC23A1F0162F81115CDFEC2FF0E018
:10061000EE0FFF1FE250FF4FA591B4918FB7F894F2
:10062000EC91111108C0D095DE23DC938FBFDF91D0
:10063000CF911F910895DE2BF8CFCF93DF9390E0F9
:10064000FC01E858FE4F24918E5C9E4FFC01849182
:100650008823D1F090E0880F991FFC01EC51FF4FE7
:10066000A591B491FC01E250FF4FC591D491623045
:1006700071F49FB7F8943C91822F809583238C93DB
:10068000E8812E2B28839FBFDF91CF9108958FB7EC
:10069000F894EC912E2B2C938FBFF6CF3FB7F894A4
:1006A0008091370290913802A0913902B0913A02BC
:1006B00026B5A89B05C02F3F19F00196A11DB11DBD
:1006C0003FBFBA2FA92F982F8827BC01CD01620FF9
:1006D000711D811D911D42E0660F771F881F991FB4
:1006E0004A95D1F708958F929F92AF92BF92CF9281
:1006F000DF92EF92FF924B015C01D0DF6B017C0136
:10070000CDDF6C197D098E099F09683E7340810514
:100710009105B0F321E0821A9108A108B10888EE92
:10072000C80E83E0D81EE11CF11C81149104A104C1
:10073000B10431F7FF90EF90DF90CF90BF90AF9072
:100740009F908F9008951F920F920FB60F921124D1
:100750000BB60F922F933F934F935F936F937F93BB
:100760008F939F93AF93BF93EF93FF938BE392E0AD
:10077000ECDDFF91EF91BF91AF919F918F917F91B0
:100780006F915F914F913F912F910F900BBE0F9002
:100790000FBE0F901F9018951F920F920FB60F92D9
:1007A00011240BB60F922F938F939F93EF93FF9388
:1007B000E0914B02F0914C028081E0915102F09166
:1007C000520282FD1DC09081809154028F5F8F7311
:1007D00020915502821741F0E0915402F0E0E55C6F
:1007E000FD4F958F80935402FF91EF919F918F91D0
:1007F0002F910F900BBE0F900FBE0F901F9018956A
:100800008081F2CF1F920F920FB60F9211242F9377
:100810003F938F939F93AF93BF93809133029091B7
:100820003402A0913502B09136023091320223E0B9
:10083000230F2D3758F50196A11DB11D20933202CB
:100840008093330290933402A0933502B093360222
:100850008091370290913802A0913902B0913A020A
:100860000196A11DB11D8093370290933802A09389
:100870003902B0933A02BF91AF919F918F913F910E
:100880002F910F900FBE0F901F90189526E8230F01
:100890000296A11DB11DD2CF789484B5826084BD2B
:1008A00084B5816084BD85B5826085BD85B5816074
:1008B00085BD80916E00816080936E0010928100F2
:1008C00080918100826080938100809181008160AD
:1008D000809381008091800081608093800080916E
:1008E000B10084608093B1008091B00081608093FA
:1008F000B00080919100826080939100809191007E
:10090000816080939100809190008160809390003D
:100910008091A10082608093A1008091A1008160FC
:100920008093A1008091A00081608093A0008091BD
:100930002101826080932101809121018160809357
:1009400021018091200181608093200180917A00B3
:10095000846080937A0080917A00826080937A002C
:1009600080917A00816080937A0080917A0080681B
:1009700080937A001092C100E0914B02F0914C02FA
:1009800082E08083E0914702F09148021082E0917A
:100990004902F0914A028FEC808310925302E09159
:1009A0004F02F091500286E08083E0914D02F09179
:1009B0004E02808180618083E0914D02F0914E0271
:1009C000808188608083E0914D02F0914E028081A9
:1009D00080688083E0914D02F0914E0280818F7D8E
:1009E000808362E08BE129DE62E08DE126DE61E05A
:1009F0008AE223DEC2E2D2E08881229660E0F0DD66
:100A000082E0C233D807C1F7C2E2D2E088812296E1
:100A100061E013DEE2E0C233DE07C1F702E112E07B
:100A2000F80180810E5F1F4F60E0DADDF2E00232F4
:100A30001F07B1F7C2E1D2E08881229661E0FDDDB7
:100A40000C171D07C9F78BE392E06ADC892B09F1CB
:100A50008BE392E043DC813A910509F036C002E273
:100A600012E0F801F0800E5F1F4F61E08F2DB8DDBE
:100A700064E670E080E090E036DE60E08F2DB0DD6F
:100A80006BE470E080E090E02EDEF2E002331F07BE
:100A900041F78BE17DDD892B49F461EB8BE392E03B
:100AA00076DC6AE070E080E090E01DDE8DE170DDD4
:100AB000892B49F461EB8BE392E069DC6AE070E03A
:100AC00080E090E010DECEDCBECF813B910509F7DF
:100AD00002E112E0F801F0800E5F1F4F61E08F2D00
:100AE0007FDD64E670E080E090E0FDDD60E08F2D6A
:100AF00077DD6BE470E080E090E0F5DDC017D107B2
:100B000049F7C7CFEBE3F2E01382128288EE93E05D
:100B1000A0E0B0E084839583A683B78384E092E06D
:100B20009183808385EC90E09587848784EC90E0C6
:100B30009787868780EC90E0918B808B81EC90E0AA
:100B4000938B828B82EC90E0958B848B86EC90E08B
:100B5000978B868B118E128E138E148E0895EE0F46
:100B6000FF1F881F8BBF0790F691E02D1994F89412
:020B7000FFCFB5
:100B720000000000C70132015F01130290016E0103
:100B820082012A002B002C002D002E002F003000A5
:100B920031002A0031002B0030002C002F002D00E4
:020BA2002E0023
:00000001FF
