:1000000013C1000030C100002EC100002CC100004F
:100010002AC1000028C1000026C1000024C1000040
:1000200022C1000020C100001EC100001CC1000050
:100030001AC1000018C1000016C1000014C1000060
:1000400012C1000074C200000EC100000CC100000B
:100050000AC1000008C1000006C100001EC2000065
:1000600002C1000000C10000FEC00000FCC0000092
:10007000FAC00000F8C00000F6C00000F4C00000A4
:10008000F2C00000F0C00000EEC00000ECC00000B4
:10009000EAC00000E8C00000E6C00000E4C00000C4
:1000A000E2C00000E0C00000DEC00000DCC00000D4
:1000B000DAC00000D8C00000D6C00000D4C00000E4
:1000C000D2C00000D0C00000CEC00000CCC00000F4
:1000D000CAC00000C8C00000C6C00000C4C0000004
:1000E000C2C000004E015101400144014A01880193
:1000F000550159015F01630167016D0171017501CE
:1001000088017B017F01830100002100240027007A
:100110002A002D0030003300010100000401070116
:100120000A0100002200250028002B002E003100CB
:10013000340002010000050108010B01000020004D
:100140002300260029002C002F00320000010000AF
:10015000030106010901050505050705080808084A
:10016000020202020A0A080804040404010101014F
:10017000010101010303030303030303040707074A
:100180000C0C0C0C0C0C0C0C0202020206060606EF
:10019000060606060B0B0B0B0B0B0B0B01021020BC
:1001A00020080810204010204080020102010804AD
:1001B0000201010204081020408080402010080441
:1001C000020180040201804020100804020108049A
:1001D00002010102040810204080010204081020DE
:1001E000408000000A0B02090C0D0E0807030401F1
:1001F00000000000000000000000000000000000FF
:1002000000000000000000000000000000001211CB
:1002100010000000000000000000000000000000CE
:10022000000000000000000011241FBECFEFD1E24B
:10023000DEBFCDBF00E00CBF12E0A0E0B2E0EAED0F
:10024000FFE000E00BBF02C007900D92AA30B1079B
:10025000D9F722E0AAE0B2E001C01D92A033B207B4
:10026000E1F76BD2B8C6CCCE90E0FC013197E23119
:10027000F10508F04DC08827EE58FF4F8F4FB4C3EB
:10028000809180008F7703C0809180008F7D809364
:100290008000089580918000877FF9CF84B58F77A3
:1002A00002C084B58F7D84BD08958091B0008F77A2
:1002B00003C08091B0008F7D8093B000089580913D
:1002C00090008F7707C0809190008F7D03C0809150
:1002D0009000877F8093900008958091A0008F7791
:1002E00007C08091A0008F7D03C08091A000877F10
:1002F0008093A0000895809120018F7707C080919E
:1003000020018F7D03C080912001877F8093200191
:100310000895CF93DF93282F30E0F901EE51FE4F7F
:100320008491F901E456FE4FD491F901EA5AFE4F47
:10033000C491CC2389F0811197DFEC2FF0E0EE0F10
:10034000FF1FE45CFE4FA591B491EC91ED2381E099
:1003500090E021F480E002C080E090E0DF91CF9156
:1003600008951F93CF93DF93282F30E0F901EE51CA
:10037000FE4F8491F901E456FE4FD491F901EA5AF7
:10038000FE4FC491CC23B9F0162F81116DDFEC2FF5
:10039000F0E0EE0FFF1FEE5DFE4FA591B4919FB709
:1003A000F894111104C08C91D095D82302C0EC911F
:1003B000DE2BDC939FBFDF91CF911F910895CF93E8
:1003C000DF9390E0FC01E456FE4F2491FC01EA5AD1
:1003D000FE4F8491882361F190E0880F991FFC0102
:1003E000E85FFE4FC591D491FC01EE5DFE4FA591F3
:1003F000B491611109C09FB7F89488812095822338
:100400008883EC912E230BC0623061F49FB7F8947F
:100410008881322F309583238883EC912E2B2C9367
:100420009FBF06C08FB7F894E8812E2B28838FBF1B
:10043000DF91CF9108950F931F93CF93DF9300D057
:10044000CDB7DEB7182F062F1F926F9386E092E08C
:100450009F938F93CE0101969F938F93E1D20F903C
:100460000F900F900F900F900F900A3020F4898119
:100470008A8380E38983E12FF0E0EE0FFF1FEC5EBB
:10048000FD4F898180838A8181830F900F900F9027
:10049000DF91CF911F910F9108951F920F920FB688
:1004A0000F9211242F933F938F939F93AF93BF93FA
:1004B00080912C0290912D02A0912E02B0912F02DA
:1004C00030912B0223E0230F2D3720F40196A11D3C
:1004D000B11D05C026E8230F0296A11DB11D209372
:1004E0002B0280932C0290932D02A0932E02B093A6
:1004F0002F028091270290912802A0912902B091A9
:100500002A020196A11DB11D809327029093280213
:10051000A0932902B0932A02BF91AF919F918F912E
:100520003F912F910F900FBE0F901F9018951F9223
:100530000F920FB60F9211240BB60F922F933F9389
:100540004F935F936F937F938F939F93AF93BF93DB
:10055000CF93DF93EF93FF93C0910C02D0910D02E4
:1005600060E0209729F0FE01E35FFD4F808102C02B
:1005700080911302F6DECC5EDD4F8881813311F469
:1005800089EF25C0823311F484EA21C0833311F44A
:1005900080EB1DC0843311F489E919C0853311F44F
:1005A00082E915C0863311F482E811C0873311F453
:1005B00088EF0DC0883311F480E809C0893311F445
:1005C00080E905C0803311F480EC01C086E888B969
:1005D000C0910C02D0910D02FE01E25FFD4F61E07F
:1005E0008081BFDECD7F219709F4479880910C026E
:1005F00090910D0201968630910529F090930D029D
:1006000080930C0204C010920D0210920C02809193
:10061000250290912602009729F0019790932602D7
:100620008093250220910A0230910B02C9010196A4
:1006300090930B0280930A02243F314009F055C089
:1006400010920B0210920A0280912202882321F15B
:1006500080911F02882321F0815080931F021CC0CB
:100660009BE390931F0280912002882321F0815008
:100670008093200211C080912102882331F08150A3
:10068000809321029093200207C010921F021092C3
:10069000220281E080931A0280911E028823C1F118
:1006A00080911B02882321F0815080931B0230C06F
:1006B0009BE390931B0280911C02882321F08150C0
:1006C00080931C0225C080911D02882331F0815047
:1006D00080931D0290931C021BC010921B0210926B
:1006E0001E0281E080931A0213C068EC70E069D1A9
:1006F000892B71F480911A02882351F08F5F8093C7
:100700001A0280FD02C061E001C060E08DE029DED8
:10071000FF91EF91DF91CF91BF91AF919F918F9119
:100720007F916F915F914F913F912F910F900BBEF1
:100730000F900FBE0F901F901895CF93DF9300D0AE
:1007400000D0CDB7DEB7789484B5826084BD84B51F
:10075000816084BD85B5826085BD85B5816085BDBC
:1007600080916E00816080936E0010928100809174
:1007700081008260809381008091810081608093FC
:100780008100809180008160809380008091B10021
:1007900084608093B1008091B00081608093B0004C
:1007A000809191008260809391008091910081609E
:1007B000809391008091900081608093900080915F
:1007C000A10082608093A1008091A100816080934C
:1007D000A1008091A00081608093A0008091210100
:1007E00082608093210180912101816080932101A9
:1007F0008091200181608093200180917A00846043
:1008000080937A0080917A00826080937A00809150
:100810007A00816080937A0080917A00806880936A
:100820007A001092C100F894109280008BE08093BF
:10083000810082E080936F008CE490E090938900C7
:100840008093880086E0E0E0F2E0DE0111960190FE
:100850000D928A95E1F78FEF87B918B8FE013196AE
:10086000AEE0B2E0CE01079621912D93E817F9078B
:10087000D9F7789461E08DE0A2DD62E085E39FDD49
:1008800062E084E39CDD62E083E399DD62E082E381
:1008900096DD8FE192E0909324028093230201E0A1
:1008A00020E0E22E20E0F22E30E5C32ED12C5C01B8
:1008B0004BE1842E42E0942E15E480912502909124
:1008C0002602892B09F04CC085E323DD892B59F4DE
:1008D000E0912302F091240282818F5F893111F02F
:1008E000828301C0128284E314DD892B59F4E091E4
:1008F0002302F091240281818F5F8D3311F0818377
:1009000001C0118283E305DD892B81F480912302EC
:10091000909124028F51924029F490922402809267
:10092000230204C0B0922402A092230282E3F1DCED
:10093000892B91F4E0912302F09124028381882392
:1009400029F0128211821082138201C00383109257
:100950001A0260E08DE005DDD0922602C0922502E9
:10096000E0912302F09124026281693118F480E061
:1009700062DD04C01093140210931502E09123026B
:10098000F091240261816D3318F481E054DD04C0DC
:100990001093160210931702E0912302F0912402A3
:1009A00060816D3318F482E046DD04C010931802B4
:1009B00010931902E114F10409F47FCF0E940000A2
:1009C0007CCF97FB072E16F4009406D077FD08D055
:1009D00013D007FC05D03EF4909581959F4F089564
:1009E000709561957F4F0895EE0FFF1F881F8BBF95
:1009F0000790F691E02D1994AA1BBB1B51E107C08B
:100A0000AA1FBB1FA617B70710F0A61BB70B881F9E
:100A1000991F5A95A9F780959095BC01CD0108952D
:100A20000F931F93CF93DF93CDB7DEB72E970FB6FB
:100A3000F894DEBF0FBECDBF0E891F8986E08C8380
:100A40001A8309838FEF9FE79E838D83AE01465EF5
:100A50005F4F688D798DCE01019610D0EF81F885BA
:100A6000E00FF11F10822E960FB6F894DEBF0FBE76
:100A7000CDBFDF91CF911F910F9108952F923F929B
:100A80004F925F926F927F928F929F92AF92BF929E
:100A9000CF92DF92EF92FF920F931F93CF93DF934A
:100AA000CDB7DEB72B970FB6F894DEBF0FBECDBF24
:100AB0006C017B018A01FC0117821682838181FF10
:100AC000BFC1CE0101963C01F6019381F70193FD70
:100AD000859193FF81917F01882309F4ADC185320F
:100AE00039F493FD859193FF81917F01853221F443
:100AF000B60190E0D6D1E8CF912C212C312CFFE12A
:100B0000F315D8F08B3279F038F4803279F08332F3
:100B1000A1F4232D20611DC08D3261F0803369F472
:100B2000232D216016C0832D8260382EE32DE460D2
:100B30003E2E2AC0F32DF8601DC037FC2DC020EDDD
:100B4000280F2A3040F08E32B9F436FC75C1232DBF
:100B50002064322E19C036FE06C08AE0989E200D11
:100B60001124922E11C0EAE02E9E200D1124222E77
:100B7000F32DF0623F2E08C08C3621F4832D80685F
:100B8000382E02C0883641F4F70193FD859193FF1A
:100B900081917F018111B3CF982F9F7D9554933020
:100BA00028F40C5F1F4F9FE399830DC0833631F00B
:100BB000833771F0833509F055C020C0F80180817A
:100BC00089830E5F1F4F88248394912C530112C098
:100BD0002801F2E04F0E511CF801A080B18036FED2
:100BE00003C0692D70E002C06FEF7FEFC5014ED1E9
:100BF0004C018201F32DFF773F2E15C0280122E022
:100C0000420E511CF801A080B18036FE03C0692D50
:100C100070E002C06FEF7FEFC5012DD14C01F32DC5
:100C2000F0683F2E820133FC19C0822D90E08816B7
:100C30009906A0F4B60180E290E033D12A94F5CF72
:100C4000F50137FC859137FE81915F01B60190E097
:100C500028D121102A9421E0821A9108811491044C
:100C600079F7E1C0843611F0893639F5F80137FE9D
:100C700007C060817181828193810C5F1F4F08C022
:100C800060817181072E000C880B990B0E5F1F4F3E
:100C9000F32DFF763F2E97FF09C0909580957095B4
:100CA00061957F4F8F4F9F4FF0683F2E2AE030E0D5
:100CB000A30133D1882E861844C0853731F4232D03
:100CC0002F7EB22E2AE030E025C0932D997FB92ED9
:100CD0008F36C1F018F4883579F0AEC0803719F03E
:100CE000883721F0A9C0E92FE061BE2EB4FE0DC007
:100CF000FB2DF460BF2E09C034FE0AC0292F2660E8
:100D0000B22E06C028E030E005C020E130E002C08D
:100D100020E132E0F801B7FE07C060817181828175
:100D200093810C5F1F4F06C06081718180E090E06D
:100D30000E5F1F4FA301F1D0882E8618FB2DFF7781
:100D40003F2E36FE0DC0232D2E7FA22E891458F47F
:100D500034FE0BC032FC09C0832D8E7EA82E05C048
:100D6000B82CA32C03C0B82C01C0B92CA4FE0FC012
:100D7000FE01E80DF11D8081803321F49A2D997ECA
:100D8000A92E09C0A2FE06C0B394B39404C08A2D54
:100D9000867809F0B394A3FC10C0A0FE06C0B2147C
:100DA00080F4280C922C9B180DC0B21458F4B60194
:100DB00080E290E076D0B394F8CFB21418F42B18F8
:100DC00002C0982C212CA4FE0FC0B60180E390E055
:100DD00068D0A2FE16C0A1FC03C088E790E002C064
:100DE00088E590E0B6010CC08A2D867851F0A1FE0E
:100DF00002C08BE201C080E2A7FC8DE2B60190E068
:100E000050D0891430F4B60180E390E04AD09A942F
:100E1000F8CF8A94F301E80DF11D8081B60190E0CE
:100E200040D08110F6CF222009F44ECEB60180E2E8
:100E300090E037D02A94F7CFF6018681978102C0DF
:100E40008FEF9FEF2B960FB6F894DEBF0FBECDBF8E
:100E5000DF91CF911F910F91FF90EF90DF90CF9096
:100E6000BF90AF909F908F907F906F905F904F90CA
:100E70003F902F900895FC01059061507040011043
:100E8000D8F7809590958E0F9F1F0895FC016150B3
:100E9000704001900110D8F7809590958E0F9F1F9C
:100EA00008950F931F93CF93DF93FB01238121FDBF
:100EB00003C08FEF9FEF2CC022FF16C046815781E1
:100EC000248135814217530744F4A081B1819D01EB
:100ED0002F5F3F4F318320838C93268137812F5F93
:100EE0003F4F3783268314C08B01EC01FB01008444
:100EF000F185E02D1995892BE1F6D80116968D9193
:100F00009C911797019617969C938E931697CE01F6
:100F1000DF91CF911F910F910895FA01AA272830F0
:100F200051F1203181F1E8946F936E7F6E5F7F4FB6
:100F30008F4F9F4FAF4FB1E03ED0B4E03CD0670F32
:100F4000781F891F9A1FA11D680F791F8A1F911D85
:100F5000A11D6A0F711D811D911DA11D20D009F4D5
:100F600068943F912AE0269F11243019305D319317
:100F7000DEF6CF010895462F4770405D4193B3E000
:100F80000FD0C9F7F6CF462F4F70405D4A3318F0A7
:100F9000495D31FD4052419302D0A9F7EACFB4E058
:100FA000A6959795879577956795BA95C9F7009710
:100FB0006105710508959B01AC010A2E06945795B1
:100FC000479537952795BA95C9F7620F731F841F08
:0A0FD000951FA01D0895F894FFCFAF
:0A0FDA0018191A1B1C1D25640000E5
:00000001FF
